{"contracts/dFUSE.sol":{"dFUSE":{"abi":[{"anonymous":false,"inputs":[{"indexed":false,"internalType":"uint256","name":"serialNum","type":"uint256"},{"indexed":false,"internalType":"address","name":"funder","type":"address"},{"indexed":false,"internalType":"uint256","name":"amount","type":"uint256"}],"name":"FundingReceived","type":"event"},{"anonymous":false,"inputs":[{"indexed":false,"internalType":"uint256","name":"serialNum","type":"uint256"}],"name":"ProjectClosed","type":"event"},{"anonymous":false,"inputs":[{"indexed":false,"internalType":"uint256","name":"serialNum","type":"uint256"},{"indexed":false,"internalType":"address","name":"ownerAddress","type":"address"},{"indexed":false,"internalType":"string","name":"projectName","type":"string"}],"name":"ProjectCreated","type":"event"},{"anonymous":false,"inputs":[{"indexed":false,"internalType":"uint256","name":"serialNum","type":"uint256"},{"indexed":false,"internalType":"address","name":"remover","type":"address"}],"name":"ProjectRemoved","type":"event"},{"anonymous":false,"inputs":[{"indexed":false,"internalType":"uint256","name":"serialNum","type":"uint256"},{"indexed":false,"internalType":"string","name":"newDescription","type":"string"}],"name":"ProjectUpdated","type":"event"},{"inputs":[{"internalType":"string","name":"_ownerName","type":"string"},{"internalType":"string","name":"_projectName","type":"string"},{"internalType":"string","name":"_description","type":"string"},{"internalType":"string","name":"_imageUrl","type":"string"},{"internalType":"uint256","name":"_goalAmount","type":"uint256"}],"name":"createProject","outputs":[],"stateMutability":"nonpayable","type":"function"},{"inputs":[{"internalType":"uint256","name":"_serialNum","type":"uint256"}],"name":"fundProject","outputs":[],"stateMutability":"payable","type":"function"},{"inputs":[{"internalType":"uint256","name":"index","type":"uint256"}],"name":"get","outputs":[{"internalType":"string","name":"","type":"string"}],"stateMutability":"view","type":"function"},{"inputs":[],"name":"getAll","outputs":[{"internalType":"string[]","name":"","type":"string[]"}],"stateMutability":"view","type":"function"},{"inputs":[],"name":"getAllProjectsJSON","outputs":[{"internalType":"string","name":"","type":"string"}],"stateMutability":"view","type":"function"},{"inputs":[{"internalType":"uint256","name":"","type":"uint256"}],"name":"projectData","outputs":[{"internalType":"address","name":"ownerAddress","type":"address"},{"internalType":"string","name":"ownerName","type":"string"},{"internalType":"string","name":"projectName","type":"string"},{"internalType":"string","name":"description","type":"string"},{"internalType":"string","name":"imageUrl","type":"string"},{"internalType":"uint256","name":"goalAmount","type":"uint256"},{"internalType":"uint256","name":"fundedAmount","type":"uint256"},{"internalType":"bool","name":"isOpen","type":"bool"}],"stateMutability":"view","type":"function"},{"inputs":[{"internalType":"string","name":"project","type":"string"}],"name":"push","outputs":[],"stateMutability":"nonpayable","type":"function"},{"inputs":[{"internalType":"uint256","name":"index","type":"uint256"}],"name":"remove","outputs":[{"internalType":"bool","name":"","type":"bool"}],"stateMutability":"nonpayable","type":"function"},{"inputs":[{"internalType":"uint256","name":"_serialNum","type":"uint256"}],"name":"removeProject","outputs":[],"stateMutability":"nonpayable","type":"function"},{"inputs":[],"name":"serialNumCounter","outputs":[{"internalType":"uint256","name":"","type":"uint256"}],"stateMutability":"view","type":"function"},{"inputs":[{"internalType":"uint256","name":"_serialNum","type":"uint256"},{"internalType":"string","name":"_newDescription","type":"string"}],"name":"updateProjectDescription","outputs":[],"stateMutability":"nonpayable","type":"function"}],"evm":{"bytecode":{"linkReferences":{},"object":"608060405260405180602001604052806040518060400160405280600581526020017f4f6d6f726900000000000000000000000000000000000000000000000000000081525081525060009060016200005a9291906200006f565b503480156200006857600080fd5b50620004bd565b828054828255906000526020600020908101928215620000bc579160200282015b82811115620000bb578251829081620000aa9190620003d6565b509160200191906001019062000090565b5b509050620000cb9190620000cf565b5090565b5b80821115620000f35760008181620000e99190620000f7565b50600101620000d0565b5090565b5080546200010590620001c5565b6000825580601f106200011957506200013a565b601f0160209004906000526020600020908101906200013991906200013d565b5b50565b5b80821115620001585760008160009055506001016200013e565b5090565b600081519050919050565b7f4e487b7100000000000000000000000000000000000000000000000000000000600052604160045260246000fd5b7f4e487b7100000000000000000000000000000000000000000000000000000000600052602260045260246000fd5b60006002820490506001821680620001de57607f821691505b602082108103620001f457620001f362000196565b5b50919050565b60008190508160005260206000209050919050565b60006020601f8301049050919050565b600082821b905092915050565b6000600883026200025e7fffffffffffffffffffffffffffffffffffffffffffffffffffffffffffffffff826200021f565b6200026a86836200021f565b95508019841693508086168417925050509392505050565b6000819050919050565b6000819050919050565b6000620002b7620002b1620002ab8462000282565b6200028c565b62000282565b9050919050565b6000819050919050565b620002d38362000296565b620002eb620002e282620002be565b8484546200022c565b825550505050565b600090565b62000302620002f3565b6200030f818484620002c8565b505050565b5b8181101562000337576200032b600082620002f8565b60018101905062000315565b5050565b601f82111562000386576200035081620001fa565b6200035b846200020f565b810160208510156200036b578190505b620003836200037a856200020f565b83018262000314565b50505b505050565b600082821c905092915050565b6000620003ab600019846008026200038b565b1980831691505092915050565b6000620003c6838362000398565b9150826002028217905092915050565b620003e1826200015c565b67ffffffffffffffff811115620003fd57620003fc62000167565b5b620004098254620001c5565b620004168282856200033b565b600060209050601f8311600181146200044e576000841562000439578287015190505b620004458582620003b8565b865550620004b5565b601f1984166200045e86620001fa565b60005b82811015620004885784890151825560018201915060208501945060208101905062000461565b86831015620004a85784890151620004a4601f89168262000398565b8355505b6001600288020188555050505b505050505050565b61281c80620004cd6000396000f3fe60806040526004361061009c5760003560e01c80636c563abe116100645780636c563abe146101865780638903f70c146101a25780639507d39a146101e6578063a3b2cca614610223578063a78c389a1461024c578063ccadf5fe146102755761009c565b80630caf5741146100a15780634cc82215146100cc5780634f3d057a1461010957806353ed5143146101325780635873f9981461015d575b600080fd5b3480156100ad57600080fd5b506100b66102a0565b6040516100c391906112c3565b60405180910390f35b3480156100d857600080fd5b506100f360048036038101906100ee919061131e565b6102a6565b6040516101009190611366565b60405180910390f35b34801561011557600080fd5b50610130600480360381019061012b91906114c7565b610394565b005b34801561013e57600080fd5b506101476103cc565b6040516101549190611651565b60405180910390f35b34801561016957600080fd5b50610184600480360381019061017f919061131e565b6104a5565b005b6101a0600480360381019061019b919061131e565b61066e565b005b3480156101ae57600080fd5b506101c960048036038101906101c4919061131e565b6108b0565b6040516101dd9897969594939291906116fe565b60405180910390f35b3480156101f257600080fd5b5061020d6004803603810190610208919061131e565b610b45565b60405161021a9190611798565b60405180910390f35b34801561022f57600080fd5b5061024a600480360381019061024591906117ba565b610bf5565b005b34801561025857600080fd5b50610273600480360381019061026e9190611816565b610d42565b005b34801561028157600080fd5b5061028a610e69565b6040516102979190611798565b60405180910390f35b60025481565b60008082101580156102bc575060008054905082105b1561035457600060016000805490506102d59190611930565b815481106102e6576102e5611964565b5b906000526020600020016000838154811061030457610303611964565b5b90600052602060002001908161031a9190611bca565b50600080548061032d5761032c611cb2565b5b600190038181906000526020600020016000610349919061124d565b90556001905061038f565b6040517f08c379a000000000000000000000000000000000000000000000000000000000815260040161038690611d2d565b60405180910390fd5b919050565b6000819080600181540180825580915050600190039060005260206000200160009091909190915090816103c89190611d4d565b5050565b60606000805480602002602001604051908101604052809291908181526020016000905b8282101561049c57838290600052602060002001805461040f906119c2565b80601f016020809104026020016040519081016040528092919081815260200182805461043b906119c2565b80156104885780601f1061045d57610100808354040283529160200191610488565b820191906000526020600020905b81548152906001019060200180831161046b57829003601f168201915b5050505050815260200190600101906103f0565b50505050905090565b8060025481106104ea576040517f08c379a00000000000000000000000000000000000000000000000000000000081526004016104e190611e6b565b60405180910390fd5b816001600082815260200190815260200160002060000160009054906101000a900473ffffffffffffffffffffffffffffffffffffffff1673ffffffffffffffffffffffffffffffffffffffff163373ffffffffffffffffffffffffffffffffffffffff161461058f576040517f08c379a000000000000000000000000000000000000000000000000000000000815260040161058690611efd565b60405180910390fd5b60016000848152602001908152602001600020600080820160006101000a81549073ffffffffffffffffffffffffffffffffffffffff02191690556001820160006105da919061124d565b6002820160006105ea919061124d565b6003820160006105fa919061124d565b60048201600061060a919061124d565b600582016000905560068201600090556007820160006101000a81549060ff021916905550507fba1c16e049c7a348b951726f087bd968f9f40e6c64c8cf9ae55ed756ae6294408333604051610661929190611f1d565b60405180910390a1505050565b8060025481106106b3576040517f08c379a00000000000000000000000000000000000000000000000000000000081526004016106aa90611e6b565b60405180910390fd5b816001600082815260200190815260200160002060070160009054906101000a900460ff16610717576040517f08c379a000000000000000000000000000000000000000000000000000000000815260040161070e90611f92565b60405180910390fd5b6000341161075a576040517f08c379a000000000000000000000000000000000000000000000000000000000815260040161075190612024565b60405180910390fd5b6000600160008581526020019081526020016000206006015460016000868152602001908152602001600020600501546107949190611930565b90506000349050818111156107a7578190505b806001600087815260200190815260200160002060060160008282546107cd9190612044565b92505081905550600160008681526020019081526020016000206005015460016000878152602001908152602001600020600601541061086e5760006001600087815260200190815260200160002060070160006101000a81548160ff0219169083151502179055507fa10da3bd85a8a7569325abd94177d0bbf25fbded5a3f6622a5588ce2cf1153ba8560405161086591906112c3565b60405180910390a15b7fc8fceb94d8cfaf3010a32f39dbdb0c0b361b10cdd6c7299d60376c85ff6128378533836040516108a193929190612078565b60405180910390a15050505050565b60016020528060005260406000206000915090508060000160009054906101000a900473ffffffffffffffffffffffffffffffffffffffff16908060010180546108f9906119c2565b80601f0160208091040260200160405190810160405280929190818152602001828054610925906119c2565b80156109725780601f1061094757610100808354040283529160200191610972565b820191906000526020600020905b81548152906001019060200180831161095557829003601f168201915b505050505090806002018054610987906119c2565b80601f01602080910402602001604051908101604052809291908181526020018280546109b3906119c2565b8015610a005780601f106109d557610100808354040283529160200191610a00565b820191906000526020600020905b8154815290600101906020018083116109e357829003601f168201915b505050505090806003018054610a15906119c2565b80601f0160208091040260200160405190810160405280929190818152602001828054610a41906119c2565b8015610a8e5780601f10610a6357610100808354040283529160200191610a8e565b820191906000526020600020905b815481529060010190602001808311610a7157829003601f168201915b505050505090806004018054610aa3906119c2565b80601f0160208091040260200160405190810160405280929190818152602001828054610acf906119c2565b8015610b1c5780601f10610af157610100808354040283529160200191610b1c565b820191906000526020600020905b815481529060010190602001808311610aff57829003601f168201915b5050505050908060050154908060060154908060070160009054906101000a900460ff16905088565b606060008281548110610b5b57610b5a611964565b5b906000526020600020018054610b70906119c2565b80601f0160208091040260200160405190810160405280929190818152602001828054610b9c906119c2565b8015610be95780601f10610bbe57610100808354040283529160200191610be9565b820191906000526020600020905b815481529060010190602001808311610bcc57829003601f168201915b50505050509050919050565b816002548110610c3a576040517f08c379a0000000000000000000000000000000000000000000000000000000008152600401610c3190611e6b565b60405180910390fd5b826001600082815260200190815260200160002060000160009054906101000a900473ffffffffffffffffffffffffffffffffffffffff1673ffffffffffffffffffffffffffffffffffffffff163373ffffffffffffffffffffffffffffffffffffffff1614610cdf576040517f08c379a0000000000000000000000000000000000000000000000000000000008152600401610cd690611efd565b60405180910390fd5b82600160008681526020019081526020016000206003019081610d029190611d4d565b507fd59ff490e419b5a72d916db4f77bc918cb64099584e8605b5a5aa543eacc0c078484604051610d349291906120af565b60405180910390a150505050565b60006001600060025481526020019081526020016000209050338160000160006101000a81548173ffffffffffffffffffffffffffffffffffffffff021916908373ffffffffffffffffffffffffffffffffffffffff16021790555085816001019081610daf9190611d4d565b5084816002019081610dc19190611d4d565b5083816003019081610dd39190611d4d565b5082816004019081610de59190611d4d565b5081816005018190555060018160070160006101000a81548160ff0219169083151502179055507f9d9ec461f162f3f4fdb9f6d189bfe13c59e48d8acd23a4c3bfcf7cc0fe4e84ed6002543387604051610e41939291906120df565b60405180910390a160026000815480929190610e5c9061211d565b9190505550505050505050565b606060006040518060400160405280600181526020017f5b00000000000000000000000000000000000000000000000000000000000000815250905060005b600254811015611094576000811115610ede5781604051602001610ecc91906121ed565b60405160208183030381529060405291505b81610ee8826110be565b610f276001600085815260200190815260200160002060000160009054906101000a900473ffffffffffffffffffffffffffffffffffffffff1661121e565b60016000858152602001908152602001600020600101600160008681526020019081526020016000206002016001600087815260200190815260200160002060030160016000888152602001908152602001600020600401610f9e600160008a8152602001908152602001600020600501546110be565b610fbd600160008b8152602001908152602001600020600601546110be565b600160008b815260200190815260200160002060070160009054906101000a900460ff16611020576040518060400160405280600581526020017f66616c7365000000000000000000000000000000000000000000000000000000815250611057565b6040518060400160405280600481526020017f74727565000000000000000000000000000000000000000000000000000000008152505b6040516020016110709a9998979695949392919061258a565b6040516020818303038152906040529150808061108c9061211d565b915050610ea8565b50806040516020016110a691906126d0565b60405160208183030381529060405290508091505090565b606060008203611105576040518060400160405280600181526020017f30000000000000000000000000000000000000000000000000000000000000008152509050611219565b600082905060005b600082146111375780806111209061211d565b915050600a826111309190612721565b915061110d565b60008167ffffffffffffffff8111156111535761115261139c565b5b6040519080825280601f01601f1916602001820160405280156111855781602001600182028036833780820191505090505b5090505b600085146112125760018261119e9190611930565b9150600a856111ad9190612752565b60306111b99190612044565b60f81b8183815181106111cf576111ce611964565b5b60200101907effffffffffffffffffffffffffffffffffffffffffffffffffffffffffffff1916908160001a905350600a8561120b9190612721565b9450611189565b8093505050505b919050565b606060008260405160200161123391906127cb565b604051602081830303815290604052905080915050919050565b508054611259906119c2565b6000825580601f1061126b575061128a565b601f016020900490600052602060002090810190611289919061128d565b5b50565b5b808211156112a657600081600090555060010161128e565b5090565b6000819050919050565b6112bd816112aa565b82525050565b60006020820190506112d860008301846112b4565b92915050565b6000604051905090565b600080fd5b600080fd5b6112fb816112aa565b811461130657600080fd5b50565b600081359050611318816112f2565b92915050565b600060208284031215611334576113336112e8565b5b600061134284828501611309565b91505092915050565b60008115159050919050565b6113608161134b565b82525050565b600060208201905061137b6000830184611357565b92915050565b600080fd5b600080fd5b6000601f19601f8301169050919050565b7f4e487b7100000000000000000000000000000000000000000000000000000000600052604160045260246000fd5b6113d48261138b565b810181811067ffffffffffffffff821117156113f3576113f261139c565b5b80604052505050565b60006114066112de565b905061141282826113cb565b919050565b600067ffffffffffffffff8211156114325761143161139c565b5b61143b8261138b565b9050602081019050919050565b82818337600083830152505050565b600061146a61146584611417565b6113fc565b90508281526020810184848401111561148657611485611386565b5b611491848285611448565b509392505050565b600082601f8301126114ae576114ad611381565b5b81356114be848260208601611457565b91505092915050565b6000602082840312156114dd576114dc6112e8565b5b600082013567ffffffffffffffff8111156114fb576114fa6112ed565b5b61150784828501611499565b91505092915050565b600081519050919050565b600082825260208201905092915050565b6000819050602082019050919050565b600081519050919050565b600082825260208201905092915050565b60005b8381101561157657808201518184015260208101905061155b565b60008484015250505050565b600061158d8261153c565b6115978185611547565b93506115a7818560208601611558565b6115b08161138b565b840191505092915050565b60006115c78383611582565b905092915050565b6000602082019050919050565b60006115e782611510565b6115f1818561151b565b9350836020820285016116038561152c565b8060005b8581101561163f578484038952815161162085826115bb565b945061162b836115cf565b925060208a01995050600181019050611607565b50829750879550505050505092915050565b6000602082019050818103600083015261166b81846115dc565b905092915050565b600073ffffffffffffffffffffffffffffffffffffffff82169050919050565b600061169e82611673565b9050919050565b6116ae81611693565b82525050565b600082825260208201905092915050565b60006116d08261153c565b6116da81856116b4565b93506116ea818560208601611558565b6116f38161138b565b840191505092915050565b600061010082019050611714600083018b6116a5565b8181036020830152611726818a6116c5565b9050818103604083015261173a81896116c5565b9050818103606083015261174e81886116c5565b9050818103608083015261176281876116c5565b905061177160a08301866112b4565b61177e60c08301856112b4565b61178b60e0830184611357565b9998505050505050505050565b600060208201905081810360008301526117b281846116c5565b905092915050565b600080604083850312156117d1576117d06112e8565b5b60006117df85828601611309565b925050602083013567ffffffffffffffff811115611800576117ff6112ed565b5b61180c85828601611499565b9150509250929050565b600080600080600060a08688031215611832576118316112e8565b5b600086013567ffffffffffffffff8111156118505761184f6112ed565b5b61185c88828901611499565b955050602086013567ffffffffffffffff81111561187d5761187c6112ed565b5b61188988828901611499565b945050604086013567ffffffffffffffff8111156118aa576118a96112ed565b5b6118b688828901611499565b935050606086013567ffffffffffffffff8111156118d7576118d66112ed565b5b6118e388828901611499565b92505060806118f488828901611309565b9150509295509295909350565b7f4e487b7100000000000000000000000000000000000000000000000000000000600052601160045260246000fd5b600061193b826112aa565b9150611946836112aa565b925082820390508181111561195e5761195d611901565b5b92915050565b7f4e487b7100000000000000000000000000000000000000000000000000000000600052603260045260246000fd5b7f4e487b7100000000000000000000000000000000000000000000000000000000600052602260045260246000fd5b600060028204905060018216806119da57607f821691505b6020821081036119ed576119ec611993565b5b50919050565b600081549050611a02816119c2565b9050919050565b60008190508160005260206000209050919050565b60008190508160005260206000209050919050565b60006020601f8301049050919050565b600082821b905092915050565b600060088302611a807fffffffffffffffffffffffffffffffffffffffffffffffffffffffffffffffff82611a43565b611a8a8683611a43565b95508019841693508086168417925050509392505050565b6000819050919050565b6000611ac7611ac2611abd846112aa565b611aa2565b6112aa565b9050919050565b6000819050919050565b611ae183611aac565b611af5611aed82611ace565b848454611a50565b825550505050565b600090565b611b0a611afd565b611b15818484611ad8565b505050565b5b81811015611b3957611b2e600082611b02565b600181019050611b1b565b5050565b601f821115611b7e57611b4f81611a09565b611b5884611a33565b81016020851015611b67578190505b611b7b611b7385611a33565b830182611b1a565b50505b505050565b600082821c905092915050565b6000611ba160001984600802611b83565b1980831691505092915050565b6000611bba8383611b90565b9150826002028217905092915050565b818103611bd8575050611cb0565b611be1826119f3565b67ffffffffffffffff811115611bfa57611bf961139c565b5b611c0482546119c2565b611c0f828285611b3d565b6000601f831160018114611c3e5760008415611c2c578287015490505b611c368582611bae565b865550611ca9565b601f198416611c4c87611a1e565b9650611c5786611a09565b60005b82811015611c7f57848901548255600182019150600185019450602081019050611c5a565b86831015611c9c5784890154611c98601f891682611b90565b8355505b6001600288020188555050505b5050505050505b565b7f4e487b7100000000000000000000000000000000000000000000000000000000600052603160045260246000fd5b7f696e646578206f7574206f6620626f756e647300000000000000000000000000600082015250565b6000611d176013836116b4565b9150611d2282611ce1565b602082019050919050565b60006020820190508181036000830152611d4681611d0a565b9050919050565b611d568261153c565b67ffffffffffffffff811115611d6f57611d6e61139c565b5b611d7982546119c2565b611d84828285611b3d565b600060209050601f831160018114611db75760008415611da5578287015190505b611daf8582611bae565b865550611e17565b601f198416611dc586611a09565b60005b82811015611ded57848901518255600182019150602085019450602081019050611dc8565b86831015611e0a5784890151611e06601f891682611b90565b8355505b6001600288020188555050505b505050505050565b7f50726f6a65637420646f6573206e6f7420657869737400000000000000000000600082015250565b6000611e556016836116b4565b9150611e6082611e1f565b602082019050919050565b60006020820190508181036000830152611e8481611e48565b9050919050565b7f4f6e6c79207468652070726f6a656374206f776e65722063616e20706572666f60008201527f726d207468697320616374696f6e000000000000000000000000000000000000602082015250565b6000611ee7602e836116b4565b9150611ef282611e8b565b604082019050919050565b60006020820190508181036000830152611f1681611eda565b9050919050565b6000604082019050611f3260008301856112b4565b611f3f60208301846116a5565b9392505050565b7f50726f6a656374206973206e6f74206f70656e00000000000000000000000000600082015250565b6000611f7c6013836116b4565b9150611f8782611f46565b602082019050919050565b60006020820190508181036000830152611fab81611f6f565b9050919050565b7f46756e64696e6720616d6f756e74206d7573742062652067726561746572207460008201527f68616e2030000000000000000000000000000000000000000000000000000000602082015250565b600061200e6025836116b4565b915061201982611fb2565b604082019050919050565b6000602082019050818103600083015261203d81612001565b9050919050565b600061204f826112aa565b915061205a836112aa565b925082820190508082111561207257612071611901565b5b92915050565b600060608201905061208d60008301866112b4565b61209a60208301856116a5565b6120a760408301846112b4565b949350505050565b60006040820190506120c460008301856112b4565b81810360208301526120d681846116c5565b90509392505050565b60006060820190506120f460008301866112b4565b61210160208301856116a5565b818103604083015261211381846116c5565b9050949350505050565b6000612128826112aa565b91507fffffffffffffffffffffffffffffffffffffffffffffffffffffffffffffffff820361215a57612159611901565b5b600182019050919050565b600081905092915050565b600061217b8261153c565b6121858185612165565b9350612195818560208601611558565b80840191505092915050565b7f2c00000000000000000000000000000000000000000000000000000000000000600082015250565b60006121d7600183612165565b91506121e2826121a1565b600182019050919050565b60006121f98284612170565b9150612204826121ca565b915081905092915050565b7f7b2273657269616c4e756d223a00000000000000000000000000000000000000600082015250565b6000612245600d83612165565b91506122508261220f565b600d82019050919050565b7f2c226f776e657241646472657373223a22000000000000000000000000000000600082015250565b6000612291601183612165565b915061229c8261225b565b601182019050919050565b7f222c226f776e65724e616d65223a220000000000000000000000000000000000600082015250565b60006122dd600f83612165565b91506122e8826122a7565b600f82019050919050565b60008154612300816119c2565b61230a8186612165565b94506001821660008114612325576001811461233a5761236d565b60ff198316865281151582028601935061236d565b61234385611a09565b60005b8381101561236557815481890152600182019150602081019050612346565b838801955050505b50505092915050565b7f222c2270726f6a6563744e616d65223a22000000000000000000000000000000600082015250565b60006123ac601183612165565b91506123b782612376565b601182019050919050565b7f222c226465736372697074696f6e223a22000000000000000000000000000000600082015250565b60006123f8601183612165565b9150612403826123c2565b601182019050919050565b7f222c22696d61676555726c223a22000000000000000000000000000000000000600082015250565b6000612444600e83612165565b915061244f8261240e565b600e82019050919050565b7f222c22676f616c416d6f756e74223a0000000000000000000000000000000000600082015250565b6000612490600f83612165565b915061249b8261245a565b600f82019050919050565b7f2c2266756e646564416d6f756e74223a00000000000000000000000000000000600082015250565b60006124dc601083612165565b91506124e7826124a6565b601082019050919050565b7f2c2269734f70656e223a00000000000000000000000000000000000000000000600082015250565b6000612528600a83612165565b9150612533826124f2565b600a82019050919050565b7f7d00000000000000000000000000000000000000000000000000000000000000600082015250565b6000612574600183612165565b915061257f8261253e565b600182019050919050565b6000612596828d612170565b91506125a182612238565b91506125ad828c612170565b91506125b882612284565b91506125c4828b612170565b91506125cf826122d0565b91506125db828a6122f3565b91506125e68261239f565b91506125f282896122f3565b91506125fd826123eb565b915061260982886122f3565b915061261482612437565b915061262082876122f3565b915061262b82612483565b91506126378286612170565b9150612642826124cf565b915061264e8285612170565b91506126598261251b565b91506126658284612170565b915061267082612567565b91508190509b9a5050505050505050505050565b7f5d00000000000000000000000000000000000000000000000000000000000000600082015250565b60006126ba600183612165565b91506126c582612684565b600182019050919050565b60006126dc8284612170565b91506126e7826126ad565b915081905092915050565b7f4e487b7100000000000000000000000000000000000000000000000000000000600052601260045260246000fd5b600061272c826112aa565b9150612737836112aa565b925082612747576127466126f2565b5b828204905092915050565b600061275d826112aa565b9150612768836112aa565b925082612778576127776126f2565b5b828206905092915050565b60008160601b9050919050565b600061279b82612783565b9050919050565b60006127ad82612790565b9050919050565b6127c56127c082611693565b6127a2565b82525050565b60006127d782846127b4565b6014820191508190509291505056fea264697066735822122010549889e5fbb249bd8297f72e6760458e623881e6b298cfafd25d533888a3ef64736f6c63430008140033","opcodes":"PUSH1 0x80 PUSH1 0x40 MSTORE PUSH1 0x40 MLOAD DUP1 PUSH1 0x20 ADD PUSH1 0x40 MSTORE DUP1 PUSH1 0x40 MLOAD DUP1 PUSH1 0x40 ADD PUSH1 0x40 MSTORE DUP1 PUSH1 0x5 DUP2 MSTORE PUSH1 0x20 ADD PUSH32 0x4F6D6F7269000000000000000000000000000000000000000000000000000000 DUP2 MSTORE POP DUP2 MSTORE POP PUSH1 0x0 SWAP1 PUSH1 0x1 PUSH3 0x5A SWAP3 SWAP2 SWAP1 PUSH3 0x6F JUMP JUMPDEST POP CALLVALUE DUP1 ISZERO PUSH3 0x68 JUMPI PUSH1 0x0 DUP1 REVERT JUMPDEST POP PUSH3 0x4BD JUMP JUMPDEST DUP3 DUP1 SLOAD DUP3 DUP3 SSTORE SWAP1 PUSH1 0x0 MSTORE PUSH1 0x20 PUSH1 0x0 KECCAK256 SWAP1 DUP2 ADD SWAP3 DUP3 ISZERO PUSH3 0xBC JUMPI SWAP2 PUSH1 0x20 MUL DUP3 ADD JUMPDEST DUP3 DUP2 GT ISZERO PUSH3 0xBB JUMPI DUP3 MLOAD DUP3 SWAP1 DUP2 PUSH3 0xAA SWAP2 SWAP1 PUSH3 0x3D6 JUMP JUMPDEST POP SWAP2 PUSH1 0x20 ADD SWAP2 SWAP1 PUSH1 0x1 ADD SWAP1 PUSH3 0x90 JUMP JUMPDEST JUMPDEST POP SWAP1 POP PUSH3 0xCB SWAP2 SWAP1 PUSH3 0xCF JUMP JUMPDEST POP SWAP1 JUMP JUMPDEST JUMPDEST DUP1 DUP3 GT ISZERO PUSH3 0xF3 JUMPI PUSH1 0x0 DUP2 DUP2 PUSH3 0xE9 SWAP2 SWAP1 PUSH3 0xF7 JUMP JUMPDEST POP PUSH1 0x1 ADD PUSH3 0xD0 JUMP JUMPDEST POP SWAP1 JUMP JUMPDEST POP DUP1 SLOAD PUSH3 0x105 SWAP1 PUSH3 0x1C5 JUMP JUMPDEST PUSH1 0x0 DUP3 SSTORE DUP1 PUSH1 0x1F LT PUSH3 0x119 JUMPI POP PUSH3 0x13A JUMP JUMPDEST PUSH1 0x1F ADD PUSH1 0x20 SWAP1 DIV SWAP1 PUSH1 0x0 MSTORE PUSH1 0x20 PUSH1 0x0 KECCAK256 SWAP1 DUP2 ADD SWAP1 PUSH3 0x139 SWAP2 SWAP1 PUSH3 0x13D JUMP JUMPDEST JUMPDEST POP JUMP JUMPDEST JUMPDEST DUP1 DUP3 GT ISZERO PUSH3 0x158 JUMPI PUSH1 0x0 DUP2 PUSH1 0x0 SWAP1 SSTORE POP PUSH1 0x1 ADD PUSH3 0x13E JUMP JUMPDEST POP SWAP1 JUMP JUMPDEST PUSH1 0x0 DUP2 MLOAD SWAP1 POP SWAP2 SWAP1 POP JUMP JUMPDEST PUSH32 0x4E487B7100000000000000000000000000000000000000000000000000000000 PUSH1 0x0 MSTORE PUSH1 0x41 PUSH1 0x4 MSTORE PUSH1 0x24 PUSH1 0x0 REVERT JUMPDEST PUSH32 0x4E487B7100000000000000000000000000000000000000000000000000000000 PUSH1 0x0 MSTORE PUSH1 0x22 PUSH1 0x4 MSTORE PUSH1 0x24 PUSH1 0x0 REVERT JUMPDEST PUSH1 0x0 PUSH1 0x2 DUP3 DIV SWAP1 POP PUSH1 0x1 DUP3 AND DUP1 PUSH3 0x1DE JUMPI PUSH1 0x7F DUP3 AND SWAP2 POP JUMPDEST PUSH1 0x20 DUP3 LT DUP2 SUB PUSH3 0x1F4 JUMPI PUSH3 0x1F3 PUSH3 0x196 JUMP JUMPDEST JUMPDEST POP SWAP2 SWAP1 POP JUMP JUMPDEST PUSH1 0x0 DUP2 SWAP1 POP DUP2 PUSH1 0x0 MSTORE PUSH1 0x20 PUSH1 0x0 KECCAK256 SWAP1 POP SWAP2 SWAP1 POP JUMP JUMPDEST PUSH1 0x0 PUSH1 0x20 PUSH1 0x1F DUP4 ADD DIV SWAP1 POP SWAP2 SWAP1 POP JUMP JUMPDEST PUSH1 0x0 DUP3 DUP3 SHL SWAP1 POP SWAP3 SWAP2 POP POP JUMP JUMPDEST PUSH1 0x0 PUSH1 0x8 DUP4 MUL PUSH3 0x25E PUSH32 0xFFFFFFFFFFFFFFFFFFFFFFFFFFFFFFFFFFFFFFFFFFFFFFFFFFFFFFFFFFFFFFFF DUP3 PUSH3 0x21F JUMP JUMPDEST PUSH3 0x26A DUP7 DUP4 PUSH3 0x21F JUMP JUMPDEST SWAP6 POP DUP1 NOT DUP5 AND SWAP4 POP DUP1 DUP7 AND DUP5 OR SWAP3 POP POP POP SWAP4 SWAP3 POP POP POP JUMP JUMPDEST PUSH1 0x0 DUP2 SWAP1 POP SWAP2 SWAP1 POP JUMP JUMPDEST PUSH1 0x0 DUP2 SWAP1 POP SWAP2 SWAP1 POP JUMP JUMPDEST PUSH1 0x0 PUSH3 0x2B7 PUSH3 0x2B1 PUSH3 0x2AB DUP5 PUSH3 0x282 JUMP JUMPDEST PUSH3 0x28C JUMP JUMPDEST PUSH3 0x282 JUMP JUMPDEST SWAP1 POP SWAP2 SWAP1 POP JUMP JUMPDEST PUSH1 0x0 DUP2 SWAP1 POP SWAP2 SWAP1 POP JUMP JUMPDEST PUSH3 0x2D3 DUP4 PUSH3 0x296 JUMP JUMPDEST PUSH3 0x2EB PUSH3 0x2E2 DUP3 PUSH3 0x2BE JUMP JUMPDEST DUP5 DUP5 SLOAD PUSH3 0x22C JUMP JUMPDEST DUP3 SSTORE POP POP POP POP JUMP JUMPDEST PUSH1 0x0 SWAP1 JUMP JUMPDEST PUSH3 0x302 PUSH3 0x2F3 JUMP JUMPDEST PUSH3 0x30F DUP2 DUP5 DUP5 PUSH3 0x2C8 JUMP JUMPDEST POP POP POP JUMP JUMPDEST JUMPDEST DUP2 DUP2 LT ISZERO PUSH3 0x337 JUMPI PUSH3 0x32B PUSH1 0x0 DUP3 PUSH3 0x2F8 JUMP JUMPDEST PUSH1 0x1 DUP2 ADD SWAP1 POP PUSH3 0x315 JUMP JUMPDEST POP POP JUMP JUMPDEST PUSH1 0x1F DUP3 GT ISZERO PUSH3 0x386 JUMPI PUSH3 0x350 DUP2 PUSH3 0x1FA JUMP JUMPDEST PUSH3 0x35B DUP5 PUSH3 0x20F JUMP JUMPDEST DUP2 ADD PUSH1 0x20 DUP6 LT ISZERO PUSH3 0x36B JUMPI DUP2 SWAP1 POP JUMPDEST PUSH3 0x383 PUSH3 0x37A DUP6 PUSH3 0x20F JUMP JUMPDEST DUP4 ADD DUP3 PUSH3 0x314 JUMP JUMPDEST POP POP JUMPDEST POP POP POP JUMP JUMPDEST PUSH1 0x0 DUP3 DUP3 SHR SWAP1 POP SWAP3 SWAP2 POP POP JUMP JUMPDEST PUSH1 0x0 PUSH3 0x3AB PUSH1 0x0 NOT DUP5 PUSH1 0x8 MUL PUSH3 0x38B JUMP JUMPDEST NOT DUP1 DUP4 AND SWAP2 POP POP SWAP3 SWAP2 POP POP JUMP JUMPDEST PUSH1 0x0 PUSH3 0x3C6 DUP4 DUP4 PUSH3 0x398 JUMP JUMPDEST SWAP2 POP DUP3 PUSH1 0x2 MUL DUP3 OR SWAP1 POP SWAP3 SWAP2 POP POP JUMP JUMPDEST PUSH3 0x3E1 DUP3 PUSH3 0x15C JUMP JUMPDEST PUSH8 0xFFFFFFFFFFFFFFFF DUP2 GT ISZERO PUSH3 0x3FD JUMPI PUSH3 0x3FC PUSH3 0x167 JUMP JUMPDEST JUMPDEST PUSH3 0x409 DUP3 SLOAD PUSH3 0x1C5 JUMP JUMPDEST PUSH3 0x416 DUP3 DUP3 DUP6 PUSH3 0x33B JUMP JUMPDEST PUSH1 0x0 PUSH1 0x20 SWAP1 POP PUSH1 0x1F DUP4 GT PUSH1 0x1 DUP2 EQ PUSH3 0x44E JUMPI PUSH1 0x0 DUP5 ISZERO PUSH3 0x439 JUMPI DUP3 DUP8 ADD MLOAD SWAP1 POP JUMPDEST PUSH3 0x445 DUP6 DUP3 PUSH3 0x3B8 JUMP JUMPDEST DUP7 SSTORE POP PUSH3 0x4B5 JUMP JUMPDEST PUSH1 0x1F NOT DUP5 AND PUSH3 0x45E DUP7 PUSH3 0x1FA JUMP JUMPDEST PUSH1 0x0 JUMPDEST DUP3 DUP2 LT ISZERO PUSH3 0x488 JUMPI DUP5 DUP10 ADD MLOAD DUP3 SSTORE PUSH1 0x1 DUP3 ADD SWAP2 POP PUSH1 0x20 DUP6 ADD SWAP5 POP PUSH1 0x20 DUP2 ADD SWAP1 POP PUSH3 0x461 JUMP JUMPDEST DUP7 DUP4 LT ISZERO PUSH3 0x4A8 JUMPI DUP5 DUP10 ADD MLOAD PUSH3 0x4A4 PUSH1 0x1F DUP10 AND DUP3 PUSH3 0x398 JUMP JUMPDEST DUP4 SSTORE POP JUMPDEST PUSH1 0x1 PUSH1 0x2 DUP9 MUL ADD DUP9 SSTORE POP POP POP JUMPDEST POP POP POP POP POP POP JUMP JUMPDEST PUSH2 0x281C DUP1 PUSH3 0x4CD PUSH1 0x0 CODECOPY PUSH1 0x0 RETURN INVALID PUSH1 0x80 PUSH1 0x40 MSTORE PUSH1 0x4 CALLDATASIZE LT PUSH2 0x9C JUMPI PUSH1 0x0 CALLDATALOAD PUSH1 0xE0 SHR DUP1 PUSH4 0x6C563ABE GT PUSH2 0x64 JUMPI DUP1 PUSH4 0x6C563ABE EQ PUSH2 0x186 JUMPI DUP1 PUSH4 0x8903F70C EQ PUSH2 0x1A2 JUMPI DUP1 PUSH4 0x9507D39A EQ PUSH2 0x1E6 JUMPI DUP1 PUSH4 0xA3B2CCA6 EQ PUSH2 0x223 JUMPI DUP1 PUSH4 0xA78C389A EQ PUSH2 0x24C JUMPI DUP1 PUSH4 0xCCADF5FE EQ PUSH2 0x275 JUMPI PUSH2 0x9C JUMP JUMPDEST DUP1 PUSH4 0xCAF5741 EQ PUSH2 0xA1 JUMPI DUP1 PUSH4 0x4CC82215 EQ PUSH2 0xCC JUMPI DUP1 PUSH4 0x4F3D057A EQ PUSH2 0x109 JUMPI DUP1 PUSH4 0x53ED5143 EQ PUSH2 0x132 JUMPI DUP1 PUSH4 0x5873F998 EQ PUSH2 0x15D JUMPI JUMPDEST PUSH1 0x0 DUP1 REVERT JUMPDEST CALLVALUE DUP1 ISZERO PUSH2 0xAD JUMPI PUSH1 0x0 DUP1 REVERT JUMPDEST POP PUSH2 0xB6 PUSH2 0x2A0 JUMP JUMPDEST PUSH1 0x40 MLOAD PUSH2 0xC3 SWAP2 SWAP1 PUSH2 0x12C3 JUMP JUMPDEST PUSH1 0x40 MLOAD DUP1 SWAP2 SUB SWAP1 RETURN JUMPDEST CALLVALUE DUP1 ISZERO PUSH2 0xD8 JUMPI PUSH1 0x0 DUP1 REVERT JUMPDEST POP PUSH2 0xF3 PUSH1 0x4 DUP1 CALLDATASIZE SUB DUP2 ADD SWAP1 PUSH2 0xEE SWAP2 SWAP1 PUSH2 0x131E JUMP JUMPDEST PUSH2 0x2A6 JUMP JUMPDEST PUSH1 0x40 MLOAD PUSH2 0x100 SWAP2 SWAP1 PUSH2 0x1366 JUMP JUMPDEST PUSH1 0x40 MLOAD DUP1 SWAP2 SUB SWAP1 RETURN JUMPDEST CALLVALUE DUP1 ISZERO PUSH2 0x115 JUMPI PUSH1 0x0 DUP1 REVERT JUMPDEST POP PUSH2 0x130 PUSH1 0x4 DUP1 CALLDATASIZE SUB DUP2 ADD SWAP1 PUSH2 0x12B SWAP2 SWAP1 PUSH2 0x14C7 JUMP JUMPDEST PUSH2 0x394 JUMP JUMPDEST STOP JUMPDEST CALLVALUE DUP1 ISZERO PUSH2 0x13E JUMPI PUSH1 0x0 DUP1 REVERT JUMPDEST POP PUSH2 0x147 PUSH2 0x3CC JUMP JUMPDEST PUSH1 0x40 MLOAD PUSH2 0x154 SWAP2 SWAP1 PUSH2 0x1651 JUMP JUMPDEST PUSH1 0x40 MLOAD DUP1 SWAP2 SUB SWAP1 RETURN JUMPDEST CALLVALUE DUP1 ISZERO PUSH2 0x169 JUMPI PUSH1 0x0 DUP1 REVERT JUMPDEST POP PUSH2 0x184 PUSH1 0x4 DUP1 CALLDATASIZE SUB DUP2 ADD SWAP1 PUSH2 0x17F SWAP2 SWAP1 PUSH2 0x131E JUMP JUMPDEST PUSH2 0x4A5 JUMP JUMPDEST STOP JUMPDEST PUSH2 0x1A0 PUSH1 0x4 DUP1 CALLDATASIZE SUB DUP2 ADD SWAP1 PUSH2 0x19B SWAP2 SWAP1 PUSH2 0x131E JUMP JUMPDEST PUSH2 0x66E JUMP JUMPDEST STOP JUMPDEST CALLVALUE DUP1 ISZERO PUSH2 0x1AE JUMPI PUSH1 0x0 DUP1 REVERT JUMPDEST POP PUSH2 0x1C9 PUSH1 0x4 DUP1 CALLDATASIZE SUB DUP2 ADD SWAP1 PUSH2 0x1C4 SWAP2 SWAP1 PUSH2 0x131E JUMP JUMPDEST PUSH2 0x8B0 JUMP JUMPDEST PUSH1 0x40 MLOAD PUSH2 0x1DD SWAP9 SWAP8 SWAP7 SWAP6 SWAP5 SWAP4 SWAP3 SWAP2 SWAP1 PUSH2 0x16FE JUMP JUMPDEST PUSH1 0x40 MLOAD DUP1 SWAP2 SUB SWAP1 RETURN JUMPDEST CALLVALUE DUP1 ISZERO PUSH2 0x1F2 JUMPI PUSH1 0x0 DUP1 REVERT JUMPDEST POP PUSH2 0x20D PUSH1 0x4 DUP1 CALLDATASIZE SUB DUP2 ADD SWAP1 PUSH2 0x208 SWAP2 SWAP1 PUSH2 0x131E JUMP JUMPDEST PUSH2 0xB45 JUMP JUMPDEST PUSH1 0x40 MLOAD PUSH2 0x21A SWAP2 SWAP1 PUSH2 0x1798 JUMP JUMPDEST PUSH1 0x40 MLOAD DUP1 SWAP2 SUB SWAP1 RETURN JUMPDEST CALLVALUE DUP1 ISZERO PUSH2 0x22F JUMPI PUSH1 0x0 DUP1 REVERT JUMPDEST POP PUSH2 0x24A PUSH1 0x4 DUP1 CALLDATASIZE SUB DUP2 ADD SWAP1 PUSH2 0x245 SWAP2 SWAP1 PUSH2 0x17BA JUMP JUMPDEST PUSH2 0xBF5 JUMP JUMPDEST STOP JUMPDEST CALLVALUE DUP1 ISZERO PUSH2 0x258 JUMPI PUSH1 0x0 DUP1 REVERT JUMPDEST POP PUSH2 0x273 PUSH1 0x4 DUP1 CALLDATASIZE SUB DUP2 ADD SWAP1 PUSH2 0x26E SWAP2 SWAP1 PUSH2 0x1816 JUMP JUMPDEST PUSH2 0xD42 JUMP JUMPDEST STOP JUMPDEST CALLVALUE DUP1 ISZERO PUSH2 0x281 JUMPI PUSH1 0x0 DUP1 REVERT JUMPDEST POP PUSH2 0x28A PUSH2 0xE69 JUMP JUMPDEST PUSH1 0x40 MLOAD PUSH2 0x297 SWAP2 SWAP1 PUSH2 0x1798 JUMP JUMPDEST PUSH1 0x40 MLOAD DUP1 SWAP2 SUB SWAP1 RETURN JUMPDEST PUSH1 0x2 SLOAD DUP2 JUMP JUMPDEST PUSH1 0x0 DUP1 DUP3 LT ISZERO DUP1 ISZERO PUSH2 0x2BC JUMPI POP PUSH1 0x0 DUP1 SLOAD SWAP1 POP DUP3 LT JUMPDEST ISZERO PUSH2 0x354 JUMPI PUSH1 0x0 PUSH1 0x1 PUSH1 0x0 DUP1 SLOAD SWAP1 POP PUSH2 0x2D5 SWAP2 SWAP1 PUSH2 0x1930 JUMP JUMPDEST DUP2 SLOAD DUP2 LT PUSH2 0x2E6 JUMPI PUSH2 0x2E5 PUSH2 0x1964 JUMP JUMPDEST JUMPDEST SWAP1 PUSH1 0x0 MSTORE PUSH1 0x20 PUSH1 0x0 KECCAK256 ADD PUSH1 0x0 DUP4 DUP2 SLOAD DUP2 LT PUSH2 0x304 JUMPI PUSH2 0x303 PUSH2 0x1964 JUMP JUMPDEST JUMPDEST SWAP1 PUSH1 0x0 MSTORE PUSH1 0x20 PUSH1 0x0 KECCAK256 ADD SWAP1 DUP2 PUSH2 0x31A SWAP2 SWAP1 PUSH2 0x1BCA JUMP JUMPDEST POP PUSH1 0x0 DUP1 SLOAD DUP1 PUSH2 0x32D JUMPI PUSH2 0x32C PUSH2 0x1CB2 JUMP JUMPDEST JUMPDEST PUSH1 0x1 SWAP1 SUB DUP2 DUP2 SWAP1 PUSH1 0x0 MSTORE PUSH1 0x20 PUSH1 0x0 KECCAK256 ADD PUSH1 0x0 PUSH2 0x349 SWAP2 SWAP1 PUSH2 0x124D JUMP JUMPDEST SWAP1 SSTORE PUSH1 0x1 SWAP1 POP PUSH2 0x38F JUMP JUMPDEST PUSH1 0x40 MLOAD PUSH32 0x8C379A000000000000000000000000000000000000000000000000000000000 DUP2 MSTORE PUSH1 0x4 ADD PUSH2 0x386 SWAP1 PUSH2 0x1D2D JUMP JUMPDEST PUSH1 0x40 MLOAD DUP1 SWAP2 SUB SWAP1 REVERT JUMPDEST SWAP2 SWAP1 POP JUMP JUMPDEST PUSH1 0x0 DUP2 SWAP1 DUP1 PUSH1 0x1 DUP2 SLOAD ADD DUP1 DUP3 SSTORE DUP1 SWAP2 POP POP PUSH1 0x1 SWAP1 SUB SWAP1 PUSH1 0x0 MSTORE PUSH1 0x20 PUSH1 0x0 KECCAK256 ADD PUSH1 0x0 SWAP1 SWAP2 SWAP1 SWAP2 SWAP1 SWAP2 POP SWAP1 DUP2 PUSH2 0x3C8 SWAP2 SWAP1 PUSH2 0x1D4D JUMP JUMPDEST POP POP JUMP JUMPDEST PUSH1 0x60 PUSH1 0x0 DUP1 SLOAD DUP1 PUSH1 0x20 MUL PUSH1 0x20 ADD PUSH1 0x40 MLOAD SWAP1 DUP2 ADD PUSH1 0x40 MSTORE DUP1 SWAP3 SWAP2 SWAP1 DUP2 DUP2 MSTORE PUSH1 0x20 ADD PUSH1 0x0 SWAP1 JUMPDEST DUP3 DUP3 LT ISZERO PUSH2 0x49C JUMPI DUP4 DUP3 SWAP1 PUSH1 0x0 MSTORE PUSH1 0x20 PUSH1 0x0 KECCAK256 ADD DUP1 SLOAD PUSH2 0x40F SWAP1 PUSH2 0x19C2 JUMP JUMPDEST DUP1 PUSH1 0x1F ADD PUSH1 0x20 DUP1 SWAP2 DIV MUL PUSH1 0x20 ADD PUSH1 0x40 MLOAD SWAP1 DUP2 ADD PUSH1 0x40 MSTORE DUP1 SWAP3 SWAP2 SWAP1 DUP2 DUP2 MSTORE PUSH1 0x20 ADD DUP3 DUP1 SLOAD PUSH2 0x43B SWAP1 PUSH2 0x19C2 JUMP JUMPDEST DUP1 ISZERO PUSH2 0x488 JUMPI DUP1 PUSH1 0x1F LT PUSH2 0x45D JUMPI PUSH2 0x100 DUP1 DUP4 SLOAD DIV MUL DUP4 MSTORE SWAP2 PUSH1 0x20 ADD SWAP2 PUSH2 0x488 JUMP JUMPDEST DUP3 ADD SWAP2 SWAP1 PUSH1 0x0 MSTORE PUSH1 0x20 PUSH1 0x0 KECCAK256 SWAP1 JUMPDEST DUP2 SLOAD DUP2 MSTORE SWAP1 PUSH1 0x1 ADD SWAP1 PUSH1 0x20 ADD DUP1 DUP4 GT PUSH2 0x46B JUMPI DUP3 SWAP1 SUB PUSH1 0x1F AND DUP3 ADD SWAP2 JUMPDEST POP POP POP POP POP DUP2 MSTORE PUSH1 0x20 ADD SWAP1 PUSH1 0x1 ADD SWAP1 PUSH2 0x3F0 JUMP JUMPDEST POP POP POP POP SWAP1 POP SWAP1 JUMP JUMPDEST DUP1 PUSH1 0x2 SLOAD DUP2 LT PUSH2 0x4EA JUMPI PUSH1 0x40 MLOAD PUSH32 0x8C379A000000000000000000000000000000000000000000000000000000000 DUP2 MSTORE PUSH1 0x4 ADD PUSH2 0x4E1 SWAP1 PUSH2 0x1E6B JUMP JUMPDEST PUSH1 0x40 MLOAD DUP1 SWAP2 SUB SWAP1 REVERT JUMPDEST DUP2 PUSH1 0x1 PUSH1 0x0 DUP3 DUP2 MSTORE PUSH1 0x20 ADD SWAP1 DUP2 MSTORE PUSH1 0x20 ADD PUSH1 0x0 KECCAK256 PUSH1 0x0 ADD PUSH1 0x0 SWAP1 SLOAD SWAP1 PUSH2 0x100 EXP SWAP1 DIV PUSH20 0xFFFFFFFFFFFFFFFFFFFFFFFFFFFFFFFFFFFFFFFF AND PUSH20 0xFFFFFFFFFFFFFFFFFFFFFFFFFFFFFFFFFFFFFFFF AND CALLER PUSH20 0xFFFFFFFFFFFFFFFFFFFFFFFFFFFFFFFFFFFFFFFF AND EQ PUSH2 0x58F JUMPI PUSH1 0x40 MLOAD PUSH32 0x8C379A000000000000000000000000000000000000000000000000000000000 DUP2 MSTORE PUSH1 0x4 ADD PUSH2 0x586 SWAP1 PUSH2 0x1EFD JUMP JUMPDEST PUSH1 0x40 MLOAD DUP1 SWAP2 SUB SWAP1 REVERT JUMPDEST PUSH1 0x1 PUSH1 0x0 DUP5 DUP2 MSTORE PUSH1 0x20 ADD SWAP1 DUP2 MSTORE PUSH1 0x20 ADD PUSH1 0x0 KECCAK256 PUSH1 0x0 DUP1 DUP3 ADD PUSH1 0x0 PUSH2 0x100 EXP DUP2 SLOAD SWAP1 PUSH20 0xFFFFFFFFFFFFFFFFFFFFFFFFFFFFFFFFFFFFFFFF MUL NOT AND SWAP1 SSTORE PUSH1 0x1 DUP3 ADD PUSH1 0x0 PUSH2 0x5DA SWAP2 SWAP1 PUSH2 0x124D JUMP JUMPDEST PUSH1 0x2 DUP3 ADD PUSH1 0x0 PUSH2 0x5EA SWAP2 SWAP1 PUSH2 0x124D JUMP JUMPDEST PUSH1 0x3 DUP3 ADD PUSH1 0x0 PUSH2 0x5FA SWAP2 SWAP1 PUSH2 0x124D JUMP JUMPDEST PUSH1 0x4 DUP3 ADD PUSH1 0x0 PUSH2 0x60A SWAP2 SWAP1 PUSH2 0x124D JUMP JUMPDEST PUSH1 0x5 DUP3 ADD PUSH1 0x0 SWAP1 SSTORE PUSH1 0x6 DUP3 ADD PUSH1 0x0 SWAP1 SSTORE PUSH1 0x7 DUP3 ADD PUSH1 0x0 PUSH2 0x100 EXP DUP2 SLOAD SWAP1 PUSH1 0xFF MUL NOT AND SWAP1 SSTORE POP POP PUSH32 0xBA1C16E049C7A348B951726F087BD968F9F40E6C64C8CF9AE55ED756AE629440 DUP4 CALLER PUSH1 0x40 MLOAD PUSH2 0x661 SWAP3 SWAP2 SWAP1 PUSH2 0x1F1D JUMP JUMPDEST PUSH1 0x40 MLOAD DUP1 SWAP2 SUB SWAP1 LOG1 POP POP POP JUMP JUMPDEST DUP1 PUSH1 0x2 SLOAD DUP2 LT PUSH2 0x6B3 JUMPI PUSH1 0x40 MLOAD PUSH32 0x8C379A000000000000000000000000000000000000000000000000000000000 DUP2 MSTORE PUSH1 0x4 ADD PUSH2 0x6AA SWAP1 PUSH2 0x1E6B JUMP JUMPDEST PUSH1 0x40 MLOAD DUP1 SWAP2 SUB SWAP1 REVERT JUMPDEST DUP2 PUSH1 0x1 PUSH1 0x0 DUP3 DUP2 MSTORE PUSH1 0x20 ADD SWAP1 DUP2 MSTORE PUSH1 0x20 ADD PUSH1 0x0 KECCAK256 PUSH1 0x7 ADD PUSH1 0x0 SWAP1 SLOAD SWAP1 PUSH2 0x100 EXP SWAP1 DIV PUSH1 0xFF AND PUSH2 0x717 JUMPI PUSH1 0x40 MLOAD PUSH32 0x8C379A000000000000000000000000000000000000000000000000000000000 DUP2 MSTORE PUSH1 0x4 ADD PUSH2 0x70E SWAP1 PUSH2 0x1F92 JUMP JUMPDEST PUSH1 0x40 MLOAD DUP1 SWAP2 SUB SWAP1 REVERT JUMPDEST PUSH1 0x0 CALLVALUE GT PUSH2 0x75A JUMPI PUSH1 0x40 MLOAD PUSH32 0x8C379A000000000000000000000000000000000000000000000000000000000 DUP2 MSTORE PUSH1 0x4 ADD PUSH2 0x751 SWAP1 PUSH2 0x2024 JUMP JUMPDEST PUSH1 0x40 MLOAD DUP1 SWAP2 SUB SWAP1 REVERT JUMPDEST PUSH1 0x0 PUSH1 0x1 PUSH1 0x0 DUP6 DUP2 MSTORE PUSH1 0x20 ADD SWAP1 DUP2 MSTORE PUSH1 0x20 ADD PUSH1 0x0 KECCAK256 PUSH1 0x6 ADD SLOAD PUSH1 0x1 PUSH1 0x0 DUP7 DUP2 MSTORE PUSH1 0x20 ADD SWAP1 DUP2 MSTORE PUSH1 0x20 ADD PUSH1 0x0 KECCAK256 PUSH1 0x5 ADD SLOAD PUSH2 0x794 SWAP2 SWAP1 PUSH2 0x1930 JUMP JUMPDEST SWAP1 POP PUSH1 0x0 CALLVALUE SWAP1 POP DUP2 DUP2 GT ISZERO PUSH2 0x7A7 JUMPI DUP2 SWAP1 POP JUMPDEST DUP1 PUSH1 0x1 PUSH1 0x0 DUP8 DUP2 MSTORE PUSH1 0x20 ADD SWAP1 DUP2 MSTORE PUSH1 0x20 ADD PUSH1 0x0 KECCAK256 PUSH1 0x6 ADD PUSH1 0x0 DUP3 DUP3 SLOAD PUSH2 0x7CD SWAP2 SWAP1 PUSH2 0x2044 JUMP JUMPDEST SWAP3 POP POP DUP2 SWAP1 SSTORE POP PUSH1 0x1 PUSH1 0x0 DUP7 DUP2 MSTORE PUSH1 0x20 ADD SWAP1 DUP2 MSTORE PUSH1 0x20 ADD PUSH1 0x0 KECCAK256 PUSH1 0x5 ADD SLOAD PUSH1 0x1 PUSH1 0x0 DUP8 DUP2 MSTORE PUSH1 0x20 ADD SWAP1 DUP2 MSTORE PUSH1 0x20 ADD PUSH1 0x0 KECCAK256 PUSH1 0x6 ADD SLOAD LT PUSH2 0x86E JUMPI PUSH1 0x0 PUSH1 0x1 PUSH1 0x0 DUP8 DUP2 MSTORE PUSH1 0x20 ADD SWAP1 DUP2 MSTORE PUSH1 0x20 ADD PUSH1 0x0 KECCAK256 PUSH1 0x7 ADD PUSH1 0x0 PUSH2 0x100 EXP DUP2 SLOAD DUP2 PUSH1 0xFF MUL NOT AND SWAP1 DUP4 ISZERO ISZERO MUL OR SWAP1 SSTORE POP PUSH32 0xA10DA3BD85A8A7569325ABD94177D0BBF25FBDED5A3F6622A5588CE2CF1153BA DUP6 PUSH1 0x40 MLOAD PUSH2 0x865 SWAP2 SWAP1 PUSH2 0x12C3 JUMP JUMPDEST PUSH1 0x40 MLOAD DUP1 SWAP2 SUB SWAP1 LOG1 JUMPDEST PUSH32 0xC8FCEB94D8CFAF3010A32F39DBDB0C0B361B10CDD6C7299D60376C85FF612837 DUP6 CALLER DUP4 PUSH1 0x40 MLOAD PUSH2 0x8A1 SWAP4 SWAP3 SWAP2 SWAP1 PUSH2 0x2078 JUMP JUMPDEST PUSH1 0x40 MLOAD DUP1 SWAP2 SUB SWAP1 LOG1 POP POP POP POP POP JUMP JUMPDEST PUSH1 0x1 PUSH1 0x20 MSTORE DUP1 PUSH1 0x0 MSTORE PUSH1 0x40 PUSH1 0x0 KECCAK256 PUSH1 0x0 SWAP2 POP SWAP1 POP DUP1 PUSH1 0x0 ADD PUSH1 0x0 SWAP1 SLOAD SWAP1 PUSH2 0x100 EXP SWAP1 DIV PUSH20 0xFFFFFFFFFFFFFFFFFFFFFFFFFFFFFFFFFFFFFFFF AND SWAP1 DUP1 PUSH1 0x1 ADD DUP1 SLOAD PUSH2 0x8F9 SWAP1 PUSH2 0x19C2 JUMP JUMPDEST DUP1 PUSH1 0x1F ADD PUSH1 0x20 DUP1 SWAP2 DIV MUL PUSH1 0x20 ADD PUSH1 0x40 MLOAD SWAP1 DUP2 ADD PUSH1 0x40 MSTORE DUP1 SWAP3 SWAP2 SWAP1 DUP2 DUP2 MSTORE PUSH1 0x20 ADD DUP3 DUP1 SLOAD PUSH2 0x925 SWAP1 PUSH2 0x19C2 JUMP JUMPDEST DUP1 ISZERO PUSH2 0x972 JUMPI DUP1 PUSH1 0x1F LT PUSH2 0x947 JUMPI PUSH2 0x100 DUP1 DUP4 SLOAD DIV MUL DUP4 MSTORE SWAP2 PUSH1 0x20 ADD SWAP2 PUSH2 0x972 JUMP JUMPDEST DUP3 ADD SWAP2 SWAP1 PUSH1 0x0 MSTORE PUSH1 0x20 PUSH1 0x0 KECCAK256 SWAP1 JUMPDEST DUP2 SLOAD DUP2 MSTORE SWAP1 PUSH1 0x1 ADD SWAP1 PUSH1 0x20 ADD DUP1 DUP4 GT PUSH2 0x955 JUMPI DUP3 SWAP1 SUB PUSH1 0x1F AND DUP3 ADD SWAP2 JUMPDEST POP POP POP POP POP SWAP1 DUP1 PUSH1 0x2 ADD DUP1 SLOAD PUSH2 0x987 SWAP1 PUSH2 0x19C2 JUMP JUMPDEST DUP1 PUSH1 0x1F ADD PUSH1 0x20 DUP1 SWAP2 DIV MUL PUSH1 0x20 ADD PUSH1 0x40 MLOAD SWAP1 DUP2 ADD PUSH1 0x40 MSTORE DUP1 SWAP3 SWAP2 SWAP1 DUP2 DUP2 MSTORE PUSH1 0x20 ADD DUP3 DUP1 SLOAD PUSH2 0x9B3 SWAP1 PUSH2 0x19C2 JUMP JUMPDEST DUP1 ISZERO PUSH2 0xA00 JUMPI DUP1 PUSH1 0x1F LT PUSH2 0x9D5 JUMPI PUSH2 0x100 DUP1 DUP4 SLOAD DIV MUL DUP4 MSTORE SWAP2 PUSH1 0x20 ADD SWAP2 PUSH2 0xA00 JUMP JUMPDEST DUP3 ADD SWAP2 SWAP1 PUSH1 0x0 MSTORE PUSH1 0x20 PUSH1 0x0 KECCAK256 SWAP1 JUMPDEST DUP2 SLOAD DUP2 MSTORE SWAP1 PUSH1 0x1 ADD SWAP1 PUSH1 0x20 ADD DUP1 DUP4 GT PUSH2 0x9E3 JUMPI DUP3 SWAP1 SUB PUSH1 0x1F AND DUP3 ADD SWAP2 JUMPDEST POP POP POP POP POP SWAP1 DUP1 PUSH1 0x3 ADD DUP1 SLOAD PUSH2 0xA15 SWAP1 PUSH2 0x19C2 JUMP JUMPDEST DUP1 PUSH1 0x1F ADD PUSH1 0x20 DUP1 SWAP2 DIV MUL PUSH1 0x20 ADD PUSH1 0x40 MLOAD SWAP1 DUP2 ADD PUSH1 0x40 MSTORE DUP1 SWAP3 SWAP2 SWAP1 DUP2 DUP2 MSTORE PUSH1 0x20 ADD DUP3 DUP1 SLOAD PUSH2 0xA41 SWAP1 PUSH2 0x19C2 JUMP JUMPDEST DUP1 ISZERO PUSH2 0xA8E JUMPI DUP1 PUSH1 0x1F LT PUSH2 0xA63 JUMPI PUSH2 0x100 DUP1 DUP4 SLOAD DIV MUL DUP4 MSTORE SWAP2 PUSH1 0x20 ADD SWAP2 PUSH2 0xA8E JUMP JUMPDEST DUP3 ADD SWAP2 SWAP1 PUSH1 0x0 MSTORE PUSH1 0x20 PUSH1 0x0 KECCAK256 SWAP1 JUMPDEST DUP2 SLOAD DUP2 MSTORE SWAP1 PUSH1 0x1 ADD SWAP1 PUSH1 0x20 ADD DUP1 DUP4 GT PUSH2 0xA71 JUMPI DUP3 SWAP1 SUB PUSH1 0x1F AND DUP3 ADD SWAP2 JUMPDEST POP POP POP POP POP SWAP1 DUP1 PUSH1 0x4 ADD DUP1 SLOAD PUSH2 0xAA3 SWAP1 PUSH2 0x19C2 JUMP JUMPDEST DUP1 PUSH1 0x1F ADD PUSH1 0x20 DUP1 SWAP2 DIV MUL PUSH1 0x20 ADD PUSH1 0x40 MLOAD SWAP1 DUP2 ADD PUSH1 0x40 MSTORE DUP1 SWAP3 SWAP2 SWAP1 DUP2 DUP2 MSTORE PUSH1 0x20 ADD DUP3 DUP1 SLOAD PUSH2 0xACF SWAP1 PUSH2 0x19C2 JUMP JUMPDEST DUP1 ISZERO PUSH2 0xB1C JUMPI DUP1 PUSH1 0x1F LT PUSH2 0xAF1 JUMPI PUSH2 0x100 DUP1 DUP4 SLOAD DIV MUL DUP4 MSTORE SWAP2 PUSH1 0x20 ADD SWAP2 PUSH2 0xB1C JUMP JUMPDEST DUP3 ADD SWAP2 SWAP1 PUSH1 0x0 MSTORE PUSH1 0x20 PUSH1 0x0 KECCAK256 SWAP1 JUMPDEST DUP2 SLOAD DUP2 MSTORE SWAP1 PUSH1 0x1 ADD SWAP1 PUSH1 0x20 ADD DUP1 DUP4 GT PUSH2 0xAFF JUMPI DUP3 SWAP1 SUB PUSH1 0x1F AND DUP3 ADD SWAP2 JUMPDEST POP POP POP POP POP SWAP1 DUP1 PUSH1 0x5 ADD SLOAD SWAP1 DUP1 PUSH1 0x6 ADD SLOAD SWAP1 DUP1 PUSH1 0x7 ADD PUSH1 0x0 SWAP1 SLOAD SWAP1 PUSH2 0x100 EXP SWAP1 DIV PUSH1 0xFF AND SWAP1 POP DUP9 JUMP JUMPDEST PUSH1 0x60 PUSH1 0x0 DUP3 DUP2 SLOAD DUP2 LT PUSH2 0xB5B JUMPI PUSH2 0xB5A PUSH2 0x1964 JUMP JUMPDEST JUMPDEST SWAP1 PUSH1 0x0 MSTORE PUSH1 0x20 PUSH1 0x0 KECCAK256 ADD DUP1 SLOAD PUSH2 0xB70 SWAP1 PUSH2 0x19C2 JUMP JUMPDEST DUP1 PUSH1 0x1F ADD PUSH1 0x20 DUP1 SWAP2 DIV MUL PUSH1 0x20 ADD PUSH1 0x40 MLOAD SWAP1 DUP2 ADD PUSH1 0x40 MSTORE DUP1 SWAP3 SWAP2 SWAP1 DUP2 DUP2 MSTORE PUSH1 0x20 ADD DUP3 DUP1 SLOAD PUSH2 0xB9C SWAP1 PUSH2 0x19C2 JUMP JUMPDEST DUP1 ISZERO PUSH2 0xBE9 JUMPI DUP1 PUSH1 0x1F LT PUSH2 0xBBE JUMPI PUSH2 0x100 DUP1 DUP4 SLOAD DIV MUL DUP4 MSTORE SWAP2 PUSH1 0x20 ADD SWAP2 PUSH2 0xBE9 JUMP JUMPDEST DUP3 ADD SWAP2 SWAP1 PUSH1 0x0 MSTORE PUSH1 0x20 PUSH1 0x0 KECCAK256 SWAP1 JUMPDEST DUP2 SLOAD DUP2 MSTORE SWAP1 PUSH1 0x1 ADD SWAP1 PUSH1 0x20 ADD DUP1 DUP4 GT PUSH2 0xBCC JUMPI DUP3 SWAP1 SUB PUSH1 0x1F AND DUP3 ADD SWAP2 JUMPDEST POP POP POP POP POP SWAP1 POP SWAP2 SWAP1 POP JUMP JUMPDEST DUP2 PUSH1 0x2 SLOAD DUP2 LT PUSH2 0xC3A JUMPI PUSH1 0x40 MLOAD PUSH32 0x8C379A000000000000000000000000000000000000000000000000000000000 DUP2 MSTORE PUSH1 0x4 ADD PUSH2 0xC31 SWAP1 PUSH2 0x1E6B JUMP JUMPDEST PUSH1 0x40 MLOAD DUP1 SWAP2 SUB SWAP1 REVERT JUMPDEST DUP3 PUSH1 0x1 PUSH1 0x0 DUP3 DUP2 MSTORE PUSH1 0x20 ADD SWAP1 DUP2 MSTORE PUSH1 0x20 ADD PUSH1 0x0 KECCAK256 PUSH1 0x0 ADD PUSH1 0x0 SWAP1 SLOAD SWAP1 PUSH2 0x100 EXP SWAP1 DIV PUSH20 0xFFFFFFFFFFFFFFFFFFFFFFFFFFFFFFFFFFFFFFFF AND PUSH20 0xFFFFFFFFFFFFFFFFFFFFFFFFFFFFFFFFFFFFFFFF AND CALLER PUSH20 0xFFFFFFFFFFFFFFFFFFFFFFFFFFFFFFFFFFFFFFFF AND EQ PUSH2 0xCDF JUMPI PUSH1 0x40 MLOAD PUSH32 0x8C379A000000000000000000000000000000000000000000000000000000000 DUP2 MSTORE PUSH1 0x4 ADD PUSH2 0xCD6 SWAP1 PUSH2 0x1EFD JUMP JUMPDEST PUSH1 0x40 MLOAD DUP1 SWAP2 SUB SWAP1 REVERT JUMPDEST DUP3 PUSH1 0x1 PUSH1 0x0 DUP7 DUP2 MSTORE PUSH1 0x20 ADD SWAP1 DUP2 MSTORE PUSH1 0x20 ADD PUSH1 0x0 KECCAK256 PUSH1 0x3 ADD SWAP1 DUP2 PUSH2 0xD02 SWAP2 SWAP1 PUSH2 0x1D4D JUMP JUMPDEST POP PUSH32 0xD59FF490E419B5A72D916DB4F77BC918CB64099584E8605B5A5AA543EACC0C07 DUP5 DUP5 PUSH1 0x40 MLOAD PUSH2 0xD34 SWAP3 SWAP2 SWAP1 PUSH2 0x20AF JUMP JUMPDEST PUSH1 0x40 MLOAD DUP1 SWAP2 SUB SWAP1 LOG1 POP POP POP POP JUMP JUMPDEST PUSH1 0x0 PUSH1 0x1 PUSH1 0x0 PUSH1 0x2 SLOAD DUP2 MSTORE PUSH1 0x20 ADD SWAP1 DUP2 MSTORE PUSH1 0x20 ADD PUSH1 0x0 KECCAK256 SWAP1 POP CALLER DUP2 PUSH1 0x0 ADD PUSH1 0x0 PUSH2 0x100 EXP DUP2 SLOAD DUP2 PUSH20 0xFFFFFFFFFFFFFFFFFFFFFFFFFFFFFFFFFFFFFFFF MUL NOT AND SWAP1 DUP4 PUSH20 0xFFFFFFFFFFFFFFFFFFFFFFFFFFFFFFFFFFFFFFFF AND MUL OR SWAP1 SSTORE POP DUP6 DUP2 PUSH1 0x1 ADD SWAP1 DUP2 PUSH2 0xDAF SWAP2 SWAP1 PUSH2 0x1D4D JUMP JUMPDEST POP DUP5 DUP2 PUSH1 0x2 ADD SWAP1 DUP2 PUSH2 0xDC1 SWAP2 SWAP1 PUSH2 0x1D4D JUMP JUMPDEST POP DUP4 DUP2 PUSH1 0x3 ADD SWAP1 DUP2 PUSH2 0xDD3 SWAP2 SWAP1 PUSH2 0x1D4D JUMP JUMPDEST POP DUP3 DUP2 PUSH1 0x4 ADD SWAP1 DUP2 PUSH2 0xDE5 SWAP2 SWAP1 PUSH2 0x1D4D JUMP JUMPDEST POP DUP2 DUP2 PUSH1 0x5 ADD DUP2 SWAP1 SSTORE POP PUSH1 0x1 DUP2 PUSH1 0x7 ADD PUSH1 0x0 PUSH2 0x100 EXP DUP2 SLOAD DUP2 PUSH1 0xFF MUL NOT AND SWAP1 DUP4 ISZERO ISZERO MUL OR SWAP1 SSTORE POP PUSH32 0x9D9EC461F162F3F4FDB9F6D189BFE13C59E48D8ACD23A4C3BFCF7CC0FE4E84ED PUSH1 0x2 SLOAD CALLER DUP8 PUSH1 0x40 MLOAD PUSH2 0xE41 SWAP4 SWAP3 SWAP2 SWAP1 PUSH2 0x20DF JUMP JUMPDEST PUSH1 0x40 MLOAD DUP1 SWAP2 SUB SWAP1 LOG1 PUSH1 0x2 PUSH1 0x0 DUP2 SLOAD DUP1 SWAP3 SWAP2 SWAP1 PUSH2 0xE5C SWAP1 PUSH2 0x211D JUMP JUMPDEST SWAP2 SWAP1 POP SSTORE POP POP POP POP POP POP POP JUMP JUMPDEST PUSH1 0x60 PUSH1 0x0 PUSH1 0x40 MLOAD DUP1 PUSH1 0x40 ADD PUSH1 0x40 MSTORE DUP1 PUSH1 0x1 DUP2 MSTORE PUSH1 0x20 ADD PUSH32 0x5B00000000000000000000000000000000000000000000000000000000000000 DUP2 MSTORE POP SWAP1 POP PUSH1 0x0 JUMPDEST PUSH1 0x2 SLOAD DUP2 LT ISZERO PUSH2 0x1094 JUMPI PUSH1 0x0 DUP2 GT ISZERO PUSH2 0xEDE JUMPI DUP2 PUSH1 0x40 MLOAD PUSH1 0x20 ADD PUSH2 0xECC SWAP2 SWAP1 PUSH2 0x21ED JUMP JUMPDEST PUSH1 0x40 MLOAD PUSH1 0x20 DUP2 DUP4 SUB SUB DUP2 MSTORE SWAP1 PUSH1 0x40 MSTORE SWAP2 POP JUMPDEST DUP2 PUSH2 0xEE8 DUP3 PUSH2 0x10BE JUMP JUMPDEST PUSH2 0xF27 PUSH1 0x1 PUSH1 0x0 DUP6 DUP2 MSTORE PUSH1 0x20 ADD SWAP1 DUP2 MSTORE PUSH1 0x20 ADD PUSH1 0x0 KECCAK256 PUSH1 0x0 ADD PUSH1 0x0 SWAP1 SLOAD SWAP1 PUSH2 0x100 EXP SWAP1 DIV PUSH20 0xFFFFFFFFFFFFFFFFFFFFFFFFFFFFFFFFFFFFFFFF AND PUSH2 0x121E JUMP JUMPDEST PUSH1 0x1 PUSH1 0x0 DUP6 DUP2 MSTORE PUSH1 0x20 ADD SWAP1 DUP2 MSTORE PUSH1 0x20 ADD PUSH1 0x0 KECCAK256 PUSH1 0x1 ADD PUSH1 0x1 PUSH1 0x0 DUP7 DUP2 MSTORE PUSH1 0x20 ADD SWAP1 DUP2 MSTORE PUSH1 0x20 ADD PUSH1 0x0 KECCAK256 PUSH1 0x2 ADD PUSH1 0x1 PUSH1 0x0 DUP8 DUP2 MSTORE PUSH1 0x20 ADD SWAP1 DUP2 MSTORE PUSH1 0x20 ADD PUSH1 0x0 KECCAK256 PUSH1 0x3 ADD PUSH1 0x1 PUSH1 0x0 DUP9 DUP2 MSTORE PUSH1 0x20 ADD SWAP1 DUP2 MSTORE PUSH1 0x20 ADD PUSH1 0x0 KECCAK256 PUSH1 0x4 ADD PUSH2 0xF9E PUSH1 0x1 PUSH1 0x0 DUP11 DUP2 MSTORE PUSH1 0x20 ADD SWAP1 DUP2 MSTORE PUSH1 0x20 ADD PUSH1 0x0 KECCAK256 PUSH1 0x5 ADD SLOAD PUSH2 0x10BE JUMP JUMPDEST PUSH2 0xFBD PUSH1 0x1 PUSH1 0x0 DUP12 DUP2 MSTORE PUSH1 0x20 ADD SWAP1 DUP2 MSTORE PUSH1 0x20 ADD PUSH1 0x0 KECCAK256 PUSH1 0x6 ADD SLOAD PUSH2 0x10BE JUMP JUMPDEST PUSH1 0x1 PUSH1 0x0 DUP12 DUP2 MSTORE PUSH1 0x20 ADD SWAP1 DUP2 MSTORE PUSH1 0x20 ADD PUSH1 0x0 KECCAK256 PUSH1 0x7 ADD PUSH1 0x0 SWAP1 SLOAD SWAP1 PUSH2 0x100 EXP SWAP1 DIV PUSH1 0xFF AND PUSH2 0x1020 JUMPI PUSH1 0x40 MLOAD DUP1 PUSH1 0x40 ADD PUSH1 0x40 MSTORE DUP1 PUSH1 0x5 DUP2 MSTORE PUSH1 0x20 ADD PUSH32 0x66616C7365000000000000000000000000000000000000000000000000000000 DUP2 MSTORE POP PUSH2 0x1057 JUMP JUMPDEST PUSH1 0x40 MLOAD DUP1 PUSH1 0x40 ADD PUSH1 0x40 MSTORE DUP1 PUSH1 0x4 DUP2 MSTORE PUSH1 0x20 ADD PUSH32 0x7472756500000000000000000000000000000000000000000000000000000000 DUP2 MSTORE POP JUMPDEST PUSH1 0x40 MLOAD PUSH1 0x20 ADD PUSH2 0x1070 SWAP11 SWAP10 SWAP9 SWAP8 SWAP7 SWAP6 SWAP5 SWAP4 SWAP3 SWAP2 SWAP1 PUSH2 0x258A JUMP JUMPDEST PUSH1 0x40 MLOAD PUSH1 0x20 DUP2 DUP4 SUB SUB DUP2 MSTORE SWAP1 PUSH1 0x40 MSTORE SWAP2 POP DUP1 DUP1 PUSH2 0x108C SWAP1 PUSH2 0x211D JUMP JUMPDEST SWAP2 POP POP PUSH2 0xEA8 JUMP JUMPDEST POP DUP1 PUSH1 0x40 MLOAD PUSH1 0x20 ADD PUSH2 0x10A6 SWAP2 SWAP1 PUSH2 0x26D0 JUMP JUMPDEST PUSH1 0x40 MLOAD PUSH1 0x20 DUP2 DUP4 SUB SUB DUP2 MSTORE SWAP1 PUSH1 0x40 MSTORE SWAP1 POP DUP1 SWAP2 POP POP SWAP1 JUMP JUMPDEST PUSH1 0x60 PUSH1 0x0 DUP3 SUB PUSH2 0x1105 JUMPI PUSH1 0x40 MLOAD DUP1 PUSH1 0x40 ADD PUSH1 0x40 MSTORE DUP1 PUSH1 0x1 DUP2 MSTORE PUSH1 0x20 ADD PUSH32 0x3000000000000000000000000000000000000000000000000000000000000000 DUP2 MSTORE POP SWAP1 POP PUSH2 0x1219 JUMP JUMPDEST PUSH1 0x0 DUP3 SWAP1 POP PUSH1 0x0 JUMPDEST PUSH1 0x0 DUP3 EQ PUSH2 0x1137 JUMPI DUP1 DUP1 PUSH2 0x1120 SWAP1 PUSH2 0x211D JUMP JUMPDEST SWAP2 POP POP PUSH1 0xA DUP3 PUSH2 0x1130 SWAP2 SWAP1 PUSH2 0x2721 JUMP JUMPDEST SWAP2 POP PUSH2 0x110D JUMP JUMPDEST PUSH1 0x0 DUP2 PUSH8 0xFFFFFFFFFFFFFFFF DUP2 GT ISZERO PUSH2 0x1153 JUMPI PUSH2 0x1152 PUSH2 0x139C JUMP JUMPDEST JUMPDEST PUSH1 0x40 MLOAD SWAP1 DUP1 DUP3 MSTORE DUP1 PUSH1 0x1F ADD PUSH1 0x1F NOT AND PUSH1 0x20 ADD DUP3 ADD PUSH1 0x40 MSTORE DUP1 ISZERO PUSH2 0x1185 JUMPI DUP2 PUSH1 0x20 ADD PUSH1 0x1 DUP3 MUL DUP1 CALLDATASIZE DUP4 CALLDATACOPY DUP1 DUP3 ADD SWAP2 POP POP SWAP1 POP JUMPDEST POP SWAP1 POP JUMPDEST PUSH1 0x0 DUP6 EQ PUSH2 0x1212 JUMPI PUSH1 0x1 DUP3 PUSH2 0x119E SWAP2 SWAP1 PUSH2 0x1930 JUMP JUMPDEST SWAP2 POP PUSH1 0xA DUP6 PUSH2 0x11AD SWAP2 SWAP1 PUSH2 0x2752 JUMP JUMPDEST PUSH1 0x30 PUSH2 0x11B9 SWAP2 SWAP1 PUSH2 0x2044 JUMP JUMPDEST PUSH1 0xF8 SHL DUP2 DUP4 DUP2 MLOAD DUP2 LT PUSH2 0x11CF JUMPI PUSH2 0x11CE PUSH2 0x1964 JUMP JUMPDEST JUMPDEST PUSH1 0x20 ADD ADD SWAP1 PUSH31 0xFFFFFFFFFFFFFFFFFFFFFFFFFFFFFFFFFFFFFFFFFFFFFFFFFFFFFFFFFFFFFF NOT AND SWAP1 DUP2 PUSH1 0x0 BYTE SWAP1 MSTORE8 POP PUSH1 0xA DUP6 PUSH2 0x120B SWAP2 SWAP1 PUSH2 0x2721 JUMP JUMPDEST SWAP5 POP PUSH2 0x1189 JUMP JUMPDEST DUP1 SWAP4 POP POP POP POP JUMPDEST SWAP2 SWAP1 POP JUMP JUMPDEST PUSH1 0x60 PUSH1 0x0 DUP3 PUSH1 0x40 MLOAD PUSH1 0x20 ADD PUSH2 0x1233 SWAP2 SWAP1 PUSH2 0x27CB JUMP JUMPDEST PUSH1 0x40 MLOAD PUSH1 0x20 DUP2 DUP4 SUB SUB DUP2 MSTORE SWAP1 PUSH1 0x40 MSTORE SWAP1 POP DUP1 SWAP2 POP POP SWAP2 SWAP1 POP JUMP JUMPDEST POP DUP1 SLOAD PUSH2 0x1259 SWAP1 PUSH2 0x19C2 JUMP JUMPDEST PUSH1 0x0 DUP3 SSTORE DUP1 PUSH1 0x1F LT PUSH2 0x126B JUMPI POP PUSH2 0x128A JUMP JUMPDEST PUSH1 0x1F ADD PUSH1 0x20 SWAP1 DIV SWAP1 PUSH1 0x0 MSTORE PUSH1 0x20 PUSH1 0x0 KECCAK256 SWAP1 DUP2 ADD SWAP1 PUSH2 0x1289 SWAP2 SWAP1 PUSH2 0x128D JUMP JUMPDEST JUMPDEST POP JUMP JUMPDEST JUMPDEST DUP1 DUP3 GT ISZERO PUSH2 0x12A6 JUMPI PUSH1 0x0 DUP2 PUSH1 0x0 SWAP1 SSTORE POP PUSH1 0x1 ADD PUSH2 0x128E JUMP JUMPDEST POP SWAP1 JUMP JUMPDEST PUSH1 0x0 DUP2 SWAP1 POP SWAP2 SWAP1 POP JUMP JUMPDEST PUSH2 0x12BD DUP2 PUSH2 0x12AA JUMP JUMPDEST DUP3 MSTORE POP POP JUMP JUMPDEST PUSH1 0x0 PUSH1 0x20 DUP3 ADD SWAP1 POP PUSH2 0x12D8 PUSH1 0x0 DUP4 ADD DUP5 PUSH2 0x12B4 JUMP JUMPDEST SWAP3 SWAP2 POP POP JUMP JUMPDEST PUSH1 0x0 PUSH1 0x40 MLOAD SWAP1 POP SWAP1 JUMP JUMPDEST PUSH1 0x0 DUP1 REVERT JUMPDEST PUSH1 0x0 DUP1 REVERT JUMPDEST PUSH2 0x12FB DUP2 PUSH2 0x12AA JUMP JUMPDEST DUP2 EQ PUSH2 0x1306 JUMPI PUSH1 0x0 DUP1 REVERT JUMPDEST POP JUMP JUMPDEST PUSH1 0x0 DUP2 CALLDATALOAD SWAP1 POP PUSH2 0x1318 DUP2 PUSH2 0x12F2 JUMP JUMPDEST SWAP3 SWAP2 POP POP JUMP JUMPDEST PUSH1 0x0 PUSH1 0x20 DUP3 DUP5 SUB SLT ISZERO PUSH2 0x1334 JUMPI PUSH2 0x1333 PUSH2 0x12E8 JUMP JUMPDEST JUMPDEST PUSH1 0x0 PUSH2 0x1342 DUP5 DUP3 DUP6 ADD PUSH2 0x1309 JUMP JUMPDEST SWAP2 POP POP SWAP3 SWAP2 POP POP JUMP JUMPDEST PUSH1 0x0 DUP2 ISZERO ISZERO SWAP1 POP SWAP2 SWAP1 POP JUMP JUMPDEST PUSH2 0x1360 DUP2 PUSH2 0x134B JUMP JUMPDEST DUP3 MSTORE POP POP JUMP JUMPDEST PUSH1 0x0 PUSH1 0x20 DUP3 ADD SWAP1 POP PUSH2 0x137B PUSH1 0x0 DUP4 ADD DUP5 PUSH2 0x1357 JUMP JUMPDEST SWAP3 SWAP2 POP POP JUMP JUMPDEST PUSH1 0x0 DUP1 REVERT JUMPDEST PUSH1 0x0 DUP1 REVERT JUMPDEST PUSH1 0x0 PUSH1 0x1F NOT PUSH1 0x1F DUP4 ADD AND SWAP1 POP SWAP2 SWAP1 POP JUMP JUMPDEST PUSH32 0x4E487B7100000000000000000000000000000000000000000000000000000000 PUSH1 0x0 MSTORE PUSH1 0x41 PUSH1 0x4 MSTORE PUSH1 0x24 PUSH1 0x0 REVERT JUMPDEST PUSH2 0x13D4 DUP3 PUSH2 0x138B JUMP JUMPDEST DUP2 ADD DUP2 DUP2 LT PUSH8 0xFFFFFFFFFFFFFFFF DUP3 GT OR ISZERO PUSH2 0x13F3 JUMPI PUSH2 0x13F2 PUSH2 0x139C JUMP JUMPDEST JUMPDEST DUP1 PUSH1 0x40 MSTORE POP POP POP JUMP JUMPDEST PUSH1 0x0 PUSH2 0x1406 PUSH2 0x12DE JUMP JUMPDEST SWAP1 POP PUSH2 0x1412 DUP3 DUP3 PUSH2 0x13CB JUMP JUMPDEST SWAP2 SWAP1 POP JUMP JUMPDEST PUSH1 0x0 PUSH8 0xFFFFFFFFFFFFFFFF DUP3 GT ISZERO PUSH2 0x1432 JUMPI PUSH2 0x1431 PUSH2 0x139C JUMP JUMPDEST JUMPDEST PUSH2 0x143B DUP3 PUSH2 0x138B JUMP JUMPDEST SWAP1 POP PUSH1 0x20 DUP2 ADD SWAP1 POP SWAP2 SWAP1 POP JUMP JUMPDEST DUP3 DUP2 DUP4 CALLDATACOPY PUSH1 0x0 DUP4 DUP4 ADD MSTORE POP POP POP JUMP JUMPDEST PUSH1 0x0 PUSH2 0x146A PUSH2 0x1465 DUP5 PUSH2 0x1417 JUMP JUMPDEST PUSH2 0x13FC JUMP JUMPDEST SWAP1 POP DUP3 DUP2 MSTORE PUSH1 0x20 DUP2 ADD DUP5 DUP5 DUP5 ADD GT ISZERO PUSH2 0x1486 JUMPI PUSH2 0x1485 PUSH2 0x1386 JUMP JUMPDEST JUMPDEST PUSH2 0x1491 DUP5 DUP3 DUP6 PUSH2 0x1448 JUMP JUMPDEST POP SWAP4 SWAP3 POP POP POP JUMP JUMPDEST PUSH1 0x0 DUP3 PUSH1 0x1F DUP4 ADD SLT PUSH2 0x14AE JUMPI PUSH2 0x14AD PUSH2 0x1381 JUMP JUMPDEST JUMPDEST DUP2 CALLDATALOAD PUSH2 0x14BE DUP5 DUP3 PUSH1 0x20 DUP7 ADD PUSH2 0x1457 JUMP JUMPDEST SWAP2 POP POP SWAP3 SWAP2 POP POP JUMP JUMPDEST PUSH1 0x0 PUSH1 0x20 DUP3 DUP5 SUB SLT ISZERO PUSH2 0x14DD JUMPI PUSH2 0x14DC PUSH2 0x12E8 JUMP JUMPDEST JUMPDEST PUSH1 0x0 DUP3 ADD CALLDATALOAD PUSH8 0xFFFFFFFFFFFFFFFF DUP2 GT ISZERO PUSH2 0x14FB JUMPI PUSH2 0x14FA PUSH2 0x12ED JUMP JUMPDEST JUMPDEST PUSH2 0x1507 DUP5 DUP3 DUP6 ADD PUSH2 0x1499 JUMP JUMPDEST SWAP2 POP POP SWAP3 SWAP2 POP POP JUMP JUMPDEST PUSH1 0x0 DUP2 MLOAD SWAP1 POP SWAP2 SWAP1 POP JUMP JUMPDEST PUSH1 0x0 DUP3 DUP3 MSTORE PUSH1 0x20 DUP3 ADD SWAP1 POP SWAP3 SWAP2 POP POP JUMP JUMPDEST PUSH1 0x0 DUP2 SWAP1 POP PUSH1 0x20 DUP3 ADD SWAP1 POP SWAP2 SWAP1 POP JUMP JUMPDEST PUSH1 0x0 DUP2 MLOAD SWAP1 POP SWAP2 SWAP1 POP JUMP JUMPDEST PUSH1 0x0 DUP3 DUP3 MSTORE PUSH1 0x20 DUP3 ADD SWAP1 POP SWAP3 SWAP2 POP POP JUMP JUMPDEST PUSH1 0x0 JUMPDEST DUP4 DUP2 LT ISZERO PUSH2 0x1576 JUMPI DUP1 DUP3 ADD MLOAD DUP2 DUP5 ADD MSTORE PUSH1 0x20 DUP2 ADD SWAP1 POP PUSH2 0x155B JUMP JUMPDEST PUSH1 0x0 DUP5 DUP5 ADD MSTORE POP POP POP POP JUMP JUMPDEST PUSH1 0x0 PUSH2 0x158D DUP3 PUSH2 0x153C JUMP JUMPDEST PUSH2 0x1597 DUP2 DUP6 PUSH2 0x1547 JUMP JUMPDEST SWAP4 POP PUSH2 0x15A7 DUP2 DUP6 PUSH1 0x20 DUP7 ADD PUSH2 0x1558 JUMP JUMPDEST PUSH2 0x15B0 DUP2 PUSH2 0x138B JUMP JUMPDEST DUP5 ADD SWAP2 POP POP SWAP3 SWAP2 POP POP JUMP JUMPDEST PUSH1 0x0 PUSH2 0x15C7 DUP4 DUP4 PUSH2 0x1582 JUMP JUMPDEST SWAP1 POP SWAP3 SWAP2 POP POP JUMP JUMPDEST PUSH1 0x0 PUSH1 0x20 DUP3 ADD SWAP1 POP SWAP2 SWAP1 POP JUMP JUMPDEST PUSH1 0x0 PUSH2 0x15E7 DUP3 PUSH2 0x1510 JUMP JUMPDEST PUSH2 0x15F1 DUP2 DUP6 PUSH2 0x151B JUMP JUMPDEST SWAP4 POP DUP4 PUSH1 0x20 DUP3 MUL DUP6 ADD PUSH2 0x1603 DUP6 PUSH2 0x152C JUMP JUMPDEST DUP1 PUSH1 0x0 JUMPDEST DUP6 DUP2 LT ISZERO PUSH2 0x163F JUMPI DUP5 DUP5 SUB DUP10 MSTORE DUP2 MLOAD PUSH2 0x1620 DUP6 DUP3 PUSH2 0x15BB JUMP JUMPDEST SWAP5 POP PUSH2 0x162B DUP4 PUSH2 0x15CF JUMP JUMPDEST SWAP3 POP PUSH1 0x20 DUP11 ADD SWAP10 POP POP PUSH1 0x1 DUP2 ADD SWAP1 POP PUSH2 0x1607 JUMP JUMPDEST POP DUP3 SWAP8 POP DUP8 SWAP6 POP POP POP POP POP POP SWAP3 SWAP2 POP POP JUMP JUMPDEST PUSH1 0x0 PUSH1 0x20 DUP3 ADD SWAP1 POP DUP2 DUP2 SUB PUSH1 0x0 DUP4 ADD MSTORE PUSH2 0x166B DUP2 DUP5 PUSH2 0x15DC JUMP JUMPDEST SWAP1 POP SWAP3 SWAP2 POP POP JUMP JUMPDEST PUSH1 0x0 PUSH20 0xFFFFFFFFFFFFFFFFFFFFFFFFFFFFFFFFFFFFFFFF DUP3 AND SWAP1 POP SWAP2 SWAP1 POP JUMP JUMPDEST PUSH1 0x0 PUSH2 0x169E DUP3 PUSH2 0x1673 JUMP JUMPDEST SWAP1 POP SWAP2 SWAP1 POP JUMP JUMPDEST PUSH2 0x16AE DUP2 PUSH2 0x1693 JUMP JUMPDEST DUP3 MSTORE POP POP JUMP JUMPDEST PUSH1 0x0 DUP3 DUP3 MSTORE PUSH1 0x20 DUP3 ADD SWAP1 POP SWAP3 SWAP2 POP POP JUMP JUMPDEST PUSH1 0x0 PUSH2 0x16D0 DUP3 PUSH2 0x153C JUMP JUMPDEST PUSH2 0x16DA DUP2 DUP6 PUSH2 0x16B4 JUMP JUMPDEST SWAP4 POP PUSH2 0x16EA DUP2 DUP6 PUSH1 0x20 DUP7 ADD PUSH2 0x1558 JUMP JUMPDEST PUSH2 0x16F3 DUP2 PUSH2 0x138B JUMP JUMPDEST DUP5 ADD SWAP2 POP POP SWAP3 SWAP2 POP POP JUMP JUMPDEST PUSH1 0x0 PUSH2 0x100 DUP3 ADD SWAP1 POP PUSH2 0x1714 PUSH1 0x0 DUP4 ADD DUP12 PUSH2 0x16A5 JUMP JUMPDEST DUP2 DUP2 SUB PUSH1 0x20 DUP4 ADD MSTORE PUSH2 0x1726 DUP2 DUP11 PUSH2 0x16C5 JUMP JUMPDEST SWAP1 POP DUP2 DUP2 SUB PUSH1 0x40 DUP4 ADD MSTORE PUSH2 0x173A DUP2 DUP10 PUSH2 0x16C5 JUMP JUMPDEST SWAP1 POP DUP2 DUP2 SUB PUSH1 0x60 DUP4 ADD MSTORE PUSH2 0x174E DUP2 DUP9 PUSH2 0x16C5 JUMP JUMPDEST SWAP1 POP DUP2 DUP2 SUB PUSH1 0x80 DUP4 ADD MSTORE PUSH2 0x1762 DUP2 DUP8 PUSH2 0x16C5 JUMP JUMPDEST SWAP1 POP PUSH2 0x1771 PUSH1 0xA0 DUP4 ADD DUP7 PUSH2 0x12B4 JUMP JUMPDEST PUSH2 0x177E PUSH1 0xC0 DUP4 ADD DUP6 PUSH2 0x12B4 JUMP JUMPDEST PUSH2 0x178B PUSH1 0xE0 DUP4 ADD DUP5 PUSH2 0x1357 JUMP JUMPDEST SWAP10 SWAP9 POP POP POP POP POP POP POP POP POP JUMP JUMPDEST PUSH1 0x0 PUSH1 0x20 DUP3 ADD SWAP1 POP DUP2 DUP2 SUB PUSH1 0x0 DUP4 ADD MSTORE PUSH2 0x17B2 DUP2 DUP5 PUSH2 0x16C5 JUMP JUMPDEST SWAP1 POP SWAP3 SWAP2 POP POP JUMP JUMPDEST PUSH1 0x0 DUP1 PUSH1 0x40 DUP4 DUP6 SUB SLT ISZERO PUSH2 0x17D1 JUMPI PUSH2 0x17D0 PUSH2 0x12E8 JUMP JUMPDEST JUMPDEST PUSH1 0x0 PUSH2 0x17DF DUP6 DUP3 DUP7 ADD PUSH2 0x1309 JUMP JUMPDEST SWAP3 POP POP PUSH1 0x20 DUP4 ADD CALLDATALOAD PUSH8 0xFFFFFFFFFFFFFFFF DUP2 GT ISZERO PUSH2 0x1800 JUMPI PUSH2 0x17FF PUSH2 0x12ED JUMP JUMPDEST JUMPDEST PUSH2 0x180C DUP6 DUP3 DUP7 ADD PUSH2 0x1499 JUMP JUMPDEST SWAP2 POP POP SWAP3 POP SWAP3 SWAP1 POP JUMP JUMPDEST PUSH1 0x0 DUP1 PUSH1 0x0 DUP1 PUSH1 0x0 PUSH1 0xA0 DUP7 DUP9 SUB SLT ISZERO PUSH2 0x1832 JUMPI PUSH2 0x1831 PUSH2 0x12E8 JUMP JUMPDEST JUMPDEST PUSH1 0x0 DUP7 ADD CALLDATALOAD PUSH8 0xFFFFFFFFFFFFFFFF DUP2 GT ISZERO PUSH2 0x1850 JUMPI PUSH2 0x184F PUSH2 0x12ED JUMP JUMPDEST JUMPDEST PUSH2 0x185C DUP9 DUP3 DUP10 ADD PUSH2 0x1499 JUMP JUMPDEST SWAP6 POP POP PUSH1 0x20 DUP7 ADD CALLDATALOAD PUSH8 0xFFFFFFFFFFFFFFFF DUP2 GT ISZERO PUSH2 0x187D JUMPI PUSH2 0x187C PUSH2 0x12ED JUMP JUMPDEST JUMPDEST PUSH2 0x1889 DUP9 DUP3 DUP10 ADD PUSH2 0x1499 JUMP JUMPDEST SWAP5 POP POP PUSH1 0x40 DUP7 ADD CALLDATALOAD PUSH8 0xFFFFFFFFFFFFFFFF DUP2 GT ISZERO PUSH2 0x18AA JUMPI PUSH2 0x18A9 PUSH2 0x12ED JUMP JUMPDEST JUMPDEST PUSH2 0x18B6 DUP9 DUP3 DUP10 ADD PUSH2 0x1499 JUMP JUMPDEST SWAP4 POP POP PUSH1 0x60 DUP7 ADD CALLDATALOAD PUSH8 0xFFFFFFFFFFFFFFFF DUP2 GT ISZERO PUSH2 0x18D7 JUMPI PUSH2 0x18D6 PUSH2 0x12ED JUMP JUMPDEST JUMPDEST PUSH2 0x18E3 DUP9 DUP3 DUP10 ADD PUSH2 0x1499 JUMP JUMPDEST SWAP3 POP POP PUSH1 0x80 PUSH2 0x18F4 DUP9 DUP3 DUP10 ADD PUSH2 0x1309 JUMP JUMPDEST SWAP2 POP POP SWAP3 SWAP6 POP SWAP3 SWAP6 SWAP1 SWAP4 POP JUMP JUMPDEST PUSH32 0x4E487B7100000000000000000000000000000000000000000000000000000000 PUSH1 0x0 MSTORE PUSH1 0x11 PUSH1 0x4 MSTORE PUSH1 0x24 PUSH1 0x0 REVERT JUMPDEST PUSH1 0x0 PUSH2 0x193B DUP3 PUSH2 0x12AA JUMP JUMPDEST SWAP2 POP PUSH2 0x1946 DUP4 PUSH2 0x12AA JUMP JUMPDEST SWAP3 POP DUP3 DUP3 SUB SWAP1 POP DUP2 DUP2 GT ISZERO PUSH2 0x195E JUMPI PUSH2 0x195D PUSH2 0x1901 JUMP JUMPDEST JUMPDEST SWAP3 SWAP2 POP POP JUMP JUMPDEST PUSH32 0x4E487B7100000000000000000000000000000000000000000000000000000000 PUSH1 0x0 MSTORE PUSH1 0x32 PUSH1 0x4 MSTORE PUSH1 0x24 PUSH1 0x0 REVERT JUMPDEST PUSH32 0x4E487B7100000000000000000000000000000000000000000000000000000000 PUSH1 0x0 MSTORE PUSH1 0x22 PUSH1 0x4 MSTORE PUSH1 0x24 PUSH1 0x0 REVERT JUMPDEST PUSH1 0x0 PUSH1 0x2 DUP3 DIV SWAP1 POP PUSH1 0x1 DUP3 AND DUP1 PUSH2 0x19DA JUMPI PUSH1 0x7F DUP3 AND SWAP2 POP JUMPDEST PUSH1 0x20 DUP3 LT DUP2 SUB PUSH2 0x19ED JUMPI PUSH2 0x19EC PUSH2 0x1993 JUMP JUMPDEST JUMPDEST POP SWAP2 SWAP1 POP JUMP JUMPDEST PUSH1 0x0 DUP2 SLOAD SWAP1 POP PUSH2 0x1A02 DUP2 PUSH2 0x19C2 JUMP JUMPDEST SWAP1 POP SWAP2 SWAP1 POP JUMP JUMPDEST PUSH1 0x0 DUP2 SWAP1 POP DUP2 PUSH1 0x0 MSTORE PUSH1 0x20 PUSH1 0x0 KECCAK256 SWAP1 POP SWAP2 SWAP1 POP JUMP JUMPDEST PUSH1 0x0 DUP2 SWAP1 POP DUP2 PUSH1 0x0 MSTORE PUSH1 0x20 PUSH1 0x0 KECCAK256 SWAP1 POP SWAP2 SWAP1 POP JUMP JUMPDEST PUSH1 0x0 PUSH1 0x20 PUSH1 0x1F DUP4 ADD DIV SWAP1 POP SWAP2 SWAP1 POP JUMP JUMPDEST PUSH1 0x0 DUP3 DUP3 SHL SWAP1 POP SWAP3 SWAP2 POP POP JUMP JUMPDEST PUSH1 0x0 PUSH1 0x8 DUP4 MUL PUSH2 0x1A80 PUSH32 0xFFFFFFFFFFFFFFFFFFFFFFFFFFFFFFFFFFFFFFFFFFFFFFFFFFFFFFFFFFFFFFFF DUP3 PUSH2 0x1A43 JUMP JUMPDEST PUSH2 0x1A8A DUP7 DUP4 PUSH2 0x1A43 JUMP JUMPDEST SWAP6 POP DUP1 NOT DUP5 AND SWAP4 POP DUP1 DUP7 AND DUP5 OR SWAP3 POP POP POP SWAP4 SWAP3 POP POP POP JUMP JUMPDEST PUSH1 0x0 DUP2 SWAP1 POP SWAP2 SWAP1 POP JUMP JUMPDEST PUSH1 0x0 PUSH2 0x1AC7 PUSH2 0x1AC2 PUSH2 0x1ABD DUP5 PUSH2 0x12AA JUMP JUMPDEST PUSH2 0x1AA2 JUMP JUMPDEST PUSH2 0x12AA JUMP JUMPDEST SWAP1 POP SWAP2 SWAP1 POP JUMP JUMPDEST PUSH1 0x0 DUP2 SWAP1 POP SWAP2 SWAP1 POP JUMP JUMPDEST PUSH2 0x1AE1 DUP4 PUSH2 0x1AAC JUMP JUMPDEST PUSH2 0x1AF5 PUSH2 0x1AED DUP3 PUSH2 0x1ACE JUMP JUMPDEST DUP5 DUP5 SLOAD PUSH2 0x1A50 JUMP JUMPDEST DUP3 SSTORE POP POP POP POP JUMP JUMPDEST PUSH1 0x0 SWAP1 JUMP JUMPDEST PUSH2 0x1B0A PUSH2 0x1AFD JUMP JUMPDEST PUSH2 0x1B15 DUP2 DUP5 DUP5 PUSH2 0x1AD8 JUMP JUMPDEST POP POP POP JUMP JUMPDEST JUMPDEST DUP2 DUP2 LT ISZERO PUSH2 0x1B39 JUMPI PUSH2 0x1B2E PUSH1 0x0 DUP3 PUSH2 0x1B02 JUMP JUMPDEST PUSH1 0x1 DUP2 ADD SWAP1 POP PUSH2 0x1B1B JUMP JUMPDEST POP POP JUMP JUMPDEST PUSH1 0x1F DUP3 GT ISZERO PUSH2 0x1B7E JUMPI PUSH2 0x1B4F DUP2 PUSH2 0x1A09 JUMP JUMPDEST PUSH2 0x1B58 DUP5 PUSH2 0x1A33 JUMP JUMPDEST DUP2 ADD PUSH1 0x20 DUP6 LT ISZERO PUSH2 0x1B67 JUMPI DUP2 SWAP1 POP JUMPDEST PUSH2 0x1B7B PUSH2 0x1B73 DUP6 PUSH2 0x1A33 JUMP JUMPDEST DUP4 ADD DUP3 PUSH2 0x1B1A JUMP JUMPDEST POP POP JUMPDEST POP POP POP JUMP JUMPDEST PUSH1 0x0 DUP3 DUP3 SHR SWAP1 POP SWAP3 SWAP2 POP POP JUMP JUMPDEST PUSH1 0x0 PUSH2 0x1BA1 PUSH1 0x0 NOT DUP5 PUSH1 0x8 MUL PUSH2 0x1B83 JUMP JUMPDEST NOT DUP1 DUP4 AND SWAP2 POP POP SWAP3 SWAP2 POP POP JUMP JUMPDEST PUSH1 0x0 PUSH2 0x1BBA DUP4 DUP4 PUSH2 0x1B90 JUMP JUMPDEST SWAP2 POP DUP3 PUSH1 0x2 MUL DUP3 OR SWAP1 POP SWAP3 SWAP2 POP POP JUMP JUMPDEST DUP2 DUP2 SUB PUSH2 0x1BD8 JUMPI POP POP PUSH2 0x1CB0 JUMP JUMPDEST PUSH2 0x1BE1 DUP3 PUSH2 0x19F3 JUMP JUMPDEST PUSH8 0xFFFFFFFFFFFFFFFF DUP2 GT ISZERO PUSH2 0x1BFA JUMPI PUSH2 0x1BF9 PUSH2 0x139C JUMP JUMPDEST JUMPDEST PUSH2 0x1C04 DUP3 SLOAD PUSH2 0x19C2 JUMP JUMPDEST PUSH2 0x1C0F DUP3 DUP3 DUP6 PUSH2 0x1B3D JUMP JUMPDEST PUSH1 0x0 PUSH1 0x1F DUP4 GT PUSH1 0x1 DUP2 EQ PUSH2 0x1C3E JUMPI PUSH1 0x0 DUP5 ISZERO PUSH2 0x1C2C JUMPI DUP3 DUP8 ADD SLOAD SWAP1 POP JUMPDEST PUSH2 0x1C36 DUP6 DUP3 PUSH2 0x1BAE JUMP JUMPDEST DUP7 SSTORE POP PUSH2 0x1CA9 JUMP JUMPDEST PUSH1 0x1F NOT DUP5 AND PUSH2 0x1C4C DUP8 PUSH2 0x1A1E JUMP JUMPDEST SWAP7 POP PUSH2 0x1C57 DUP7 PUSH2 0x1A09 JUMP JUMPDEST PUSH1 0x0 JUMPDEST DUP3 DUP2 LT ISZERO PUSH2 0x1C7F JUMPI DUP5 DUP10 ADD SLOAD DUP3 SSTORE PUSH1 0x1 DUP3 ADD SWAP2 POP PUSH1 0x1 DUP6 ADD SWAP5 POP PUSH1 0x20 DUP2 ADD SWAP1 POP PUSH2 0x1C5A JUMP JUMPDEST DUP7 DUP4 LT ISZERO PUSH2 0x1C9C JUMPI DUP5 DUP10 ADD SLOAD PUSH2 0x1C98 PUSH1 0x1F DUP10 AND DUP3 PUSH2 0x1B90 JUMP JUMPDEST DUP4 SSTORE POP JUMPDEST PUSH1 0x1 PUSH1 0x2 DUP9 MUL ADD DUP9 SSTORE POP POP POP JUMPDEST POP POP POP POP POP POP JUMPDEST JUMP JUMPDEST PUSH32 0x4E487B7100000000000000000000000000000000000000000000000000000000 PUSH1 0x0 MSTORE PUSH1 0x31 PUSH1 0x4 MSTORE PUSH1 0x24 PUSH1 0x0 REVERT JUMPDEST PUSH32 0x696E646578206F7574206F6620626F756E647300000000000000000000000000 PUSH1 0x0 DUP3 ADD MSTORE POP JUMP JUMPDEST PUSH1 0x0 PUSH2 0x1D17 PUSH1 0x13 DUP4 PUSH2 0x16B4 JUMP JUMPDEST SWAP2 POP PUSH2 0x1D22 DUP3 PUSH2 0x1CE1 JUMP JUMPDEST PUSH1 0x20 DUP3 ADD SWAP1 POP SWAP2 SWAP1 POP JUMP JUMPDEST PUSH1 0x0 PUSH1 0x20 DUP3 ADD SWAP1 POP DUP2 DUP2 SUB PUSH1 0x0 DUP4 ADD MSTORE PUSH2 0x1D46 DUP2 PUSH2 0x1D0A JUMP JUMPDEST SWAP1 POP SWAP2 SWAP1 POP JUMP JUMPDEST PUSH2 0x1D56 DUP3 PUSH2 0x153C JUMP JUMPDEST PUSH8 0xFFFFFFFFFFFFFFFF DUP2 GT ISZERO PUSH2 0x1D6F JUMPI PUSH2 0x1D6E PUSH2 0x139C JUMP JUMPDEST JUMPDEST PUSH2 0x1D79 DUP3 SLOAD PUSH2 0x19C2 JUMP JUMPDEST PUSH2 0x1D84 DUP3 DUP3 DUP6 PUSH2 0x1B3D JUMP JUMPDEST PUSH1 0x0 PUSH1 0x20 SWAP1 POP PUSH1 0x1F DUP4 GT PUSH1 0x1 DUP2 EQ PUSH2 0x1DB7 JUMPI PUSH1 0x0 DUP5 ISZERO PUSH2 0x1DA5 JUMPI DUP3 DUP8 ADD MLOAD SWAP1 POP JUMPDEST PUSH2 0x1DAF DUP6 DUP3 PUSH2 0x1BAE JUMP JUMPDEST DUP7 SSTORE POP PUSH2 0x1E17 JUMP JUMPDEST PUSH1 0x1F NOT DUP5 AND PUSH2 0x1DC5 DUP7 PUSH2 0x1A09 JUMP JUMPDEST PUSH1 0x0 JUMPDEST DUP3 DUP2 LT ISZERO PUSH2 0x1DED JUMPI DUP5 DUP10 ADD MLOAD DUP3 SSTORE PUSH1 0x1 DUP3 ADD SWAP2 POP PUSH1 0x20 DUP6 ADD SWAP5 POP PUSH1 0x20 DUP2 ADD SWAP1 POP PUSH2 0x1DC8 JUMP JUMPDEST DUP7 DUP4 LT ISZERO PUSH2 0x1E0A JUMPI DUP5 DUP10 ADD MLOAD PUSH2 0x1E06 PUSH1 0x1F DUP10 AND DUP3 PUSH2 0x1B90 JUMP JUMPDEST DUP4 SSTORE POP JUMPDEST PUSH1 0x1 PUSH1 0x2 DUP9 MUL ADD DUP9 SSTORE POP POP POP JUMPDEST POP POP POP POP POP POP JUMP JUMPDEST PUSH32 0x50726F6A65637420646F6573206E6F7420657869737400000000000000000000 PUSH1 0x0 DUP3 ADD MSTORE POP JUMP JUMPDEST PUSH1 0x0 PUSH2 0x1E55 PUSH1 0x16 DUP4 PUSH2 0x16B4 JUMP JUMPDEST SWAP2 POP PUSH2 0x1E60 DUP3 PUSH2 0x1E1F JUMP JUMPDEST PUSH1 0x20 DUP3 ADD SWAP1 POP SWAP2 SWAP1 POP JUMP JUMPDEST PUSH1 0x0 PUSH1 0x20 DUP3 ADD SWAP1 POP DUP2 DUP2 SUB PUSH1 0x0 DUP4 ADD MSTORE PUSH2 0x1E84 DUP2 PUSH2 0x1E48 JUMP JUMPDEST SWAP1 POP SWAP2 SWAP1 POP JUMP JUMPDEST PUSH32 0x4F6E6C79207468652070726F6A656374206F776E65722063616E20706572666F PUSH1 0x0 DUP3 ADD MSTORE PUSH32 0x726D207468697320616374696F6E000000000000000000000000000000000000 PUSH1 0x20 DUP3 ADD MSTORE POP JUMP JUMPDEST PUSH1 0x0 PUSH2 0x1EE7 PUSH1 0x2E DUP4 PUSH2 0x16B4 JUMP JUMPDEST SWAP2 POP PUSH2 0x1EF2 DUP3 PUSH2 0x1E8B JUMP JUMPDEST PUSH1 0x40 DUP3 ADD SWAP1 POP SWAP2 SWAP1 POP JUMP JUMPDEST PUSH1 0x0 PUSH1 0x20 DUP3 ADD SWAP1 POP DUP2 DUP2 SUB PUSH1 0x0 DUP4 ADD MSTORE PUSH2 0x1F16 DUP2 PUSH2 0x1EDA JUMP JUMPDEST SWAP1 POP SWAP2 SWAP1 POP JUMP JUMPDEST PUSH1 0x0 PUSH1 0x40 DUP3 ADD SWAP1 POP PUSH2 0x1F32 PUSH1 0x0 DUP4 ADD DUP6 PUSH2 0x12B4 JUMP JUMPDEST PUSH2 0x1F3F PUSH1 0x20 DUP4 ADD DUP5 PUSH2 0x16A5 JUMP JUMPDEST SWAP4 SWAP3 POP POP POP JUMP JUMPDEST PUSH32 0x50726F6A656374206973206E6F74206F70656E00000000000000000000000000 PUSH1 0x0 DUP3 ADD MSTORE POP JUMP JUMPDEST PUSH1 0x0 PUSH2 0x1F7C PUSH1 0x13 DUP4 PUSH2 0x16B4 JUMP JUMPDEST SWAP2 POP PUSH2 0x1F87 DUP3 PUSH2 0x1F46 JUMP JUMPDEST PUSH1 0x20 DUP3 ADD SWAP1 POP SWAP2 SWAP1 POP JUMP JUMPDEST PUSH1 0x0 PUSH1 0x20 DUP3 ADD SWAP1 POP DUP2 DUP2 SUB PUSH1 0x0 DUP4 ADD MSTORE PUSH2 0x1FAB DUP2 PUSH2 0x1F6F JUMP JUMPDEST SWAP1 POP SWAP2 SWAP1 POP JUMP JUMPDEST PUSH32 0x46756E64696E6720616D6F756E74206D75737420626520677265617465722074 PUSH1 0x0 DUP3 ADD MSTORE PUSH32 0x68616E2030000000000000000000000000000000000000000000000000000000 PUSH1 0x20 DUP3 ADD MSTORE POP JUMP JUMPDEST PUSH1 0x0 PUSH2 0x200E PUSH1 0x25 DUP4 PUSH2 0x16B4 JUMP JUMPDEST SWAP2 POP PUSH2 0x2019 DUP3 PUSH2 0x1FB2 JUMP JUMPDEST PUSH1 0x40 DUP3 ADD SWAP1 POP SWAP2 SWAP1 POP JUMP JUMPDEST PUSH1 0x0 PUSH1 0x20 DUP3 ADD SWAP1 POP DUP2 DUP2 SUB PUSH1 0x0 DUP4 ADD MSTORE PUSH2 0x203D DUP2 PUSH2 0x2001 JUMP JUMPDEST SWAP1 POP SWAP2 SWAP1 POP JUMP JUMPDEST PUSH1 0x0 PUSH2 0x204F DUP3 PUSH2 0x12AA JUMP JUMPDEST SWAP2 POP PUSH2 0x205A DUP4 PUSH2 0x12AA JUMP JUMPDEST SWAP3 POP DUP3 DUP3 ADD SWAP1 POP DUP1 DUP3 GT ISZERO PUSH2 0x2072 JUMPI PUSH2 0x2071 PUSH2 0x1901 JUMP JUMPDEST JUMPDEST SWAP3 SWAP2 POP POP JUMP JUMPDEST PUSH1 0x0 PUSH1 0x60 DUP3 ADD SWAP1 POP PUSH2 0x208D PUSH1 0x0 DUP4 ADD DUP7 PUSH2 0x12B4 JUMP JUMPDEST PUSH2 0x209A PUSH1 0x20 DUP4 ADD DUP6 PUSH2 0x16A5 JUMP JUMPDEST PUSH2 0x20A7 PUSH1 0x40 DUP4 ADD DUP5 PUSH2 0x12B4 JUMP JUMPDEST SWAP5 SWAP4 POP POP POP POP JUMP JUMPDEST PUSH1 0x0 PUSH1 0x40 DUP3 ADD SWAP1 POP PUSH2 0x20C4 PUSH1 0x0 DUP4 ADD DUP6 PUSH2 0x12B4 JUMP JUMPDEST DUP2 DUP2 SUB PUSH1 0x20 DUP4 ADD MSTORE PUSH2 0x20D6 DUP2 DUP5 PUSH2 0x16C5 JUMP JUMPDEST SWAP1 POP SWAP4 SWAP3 POP POP POP JUMP JUMPDEST PUSH1 0x0 PUSH1 0x60 DUP3 ADD SWAP1 POP PUSH2 0x20F4 PUSH1 0x0 DUP4 ADD DUP7 PUSH2 0x12B4 JUMP JUMPDEST PUSH2 0x2101 PUSH1 0x20 DUP4 ADD DUP6 PUSH2 0x16A5 JUMP JUMPDEST DUP2 DUP2 SUB PUSH1 0x40 DUP4 ADD MSTORE PUSH2 0x2113 DUP2 DUP5 PUSH2 0x16C5 JUMP JUMPDEST SWAP1 POP SWAP5 SWAP4 POP POP POP POP JUMP JUMPDEST PUSH1 0x0 PUSH2 0x2128 DUP3 PUSH2 0x12AA JUMP JUMPDEST SWAP2 POP PUSH32 0xFFFFFFFFFFFFFFFFFFFFFFFFFFFFFFFFFFFFFFFFFFFFFFFFFFFFFFFFFFFFFFFF DUP3 SUB PUSH2 0x215A JUMPI PUSH2 0x2159 PUSH2 0x1901 JUMP JUMPDEST JUMPDEST PUSH1 0x1 DUP3 ADD SWAP1 POP SWAP2 SWAP1 POP JUMP JUMPDEST PUSH1 0x0 DUP2 SWAP1 POP SWAP3 SWAP2 POP POP JUMP JUMPDEST PUSH1 0x0 PUSH2 0x217B DUP3 PUSH2 0x153C JUMP JUMPDEST PUSH2 0x2185 DUP2 DUP6 PUSH2 0x2165 JUMP JUMPDEST SWAP4 POP PUSH2 0x2195 DUP2 DUP6 PUSH1 0x20 DUP7 ADD PUSH2 0x1558 JUMP JUMPDEST DUP1 DUP5 ADD SWAP2 POP POP SWAP3 SWAP2 POP POP JUMP JUMPDEST PUSH32 0x2C00000000000000000000000000000000000000000000000000000000000000 PUSH1 0x0 DUP3 ADD MSTORE POP JUMP JUMPDEST PUSH1 0x0 PUSH2 0x21D7 PUSH1 0x1 DUP4 PUSH2 0x2165 JUMP JUMPDEST SWAP2 POP PUSH2 0x21E2 DUP3 PUSH2 0x21A1 JUMP JUMPDEST PUSH1 0x1 DUP3 ADD SWAP1 POP SWAP2 SWAP1 POP JUMP JUMPDEST PUSH1 0x0 PUSH2 0x21F9 DUP3 DUP5 PUSH2 0x2170 JUMP JUMPDEST SWAP2 POP PUSH2 0x2204 DUP3 PUSH2 0x21CA JUMP JUMPDEST SWAP2 POP DUP2 SWAP1 POP SWAP3 SWAP2 POP POP JUMP JUMPDEST PUSH32 0x7B2273657269616C4E756D223A00000000000000000000000000000000000000 PUSH1 0x0 DUP3 ADD MSTORE POP JUMP JUMPDEST PUSH1 0x0 PUSH2 0x2245 PUSH1 0xD DUP4 PUSH2 0x2165 JUMP JUMPDEST SWAP2 POP PUSH2 0x2250 DUP3 PUSH2 0x220F JUMP JUMPDEST PUSH1 0xD DUP3 ADD SWAP1 POP SWAP2 SWAP1 POP JUMP JUMPDEST PUSH32 0x2C226F776E657241646472657373223A22000000000000000000000000000000 PUSH1 0x0 DUP3 ADD MSTORE POP JUMP JUMPDEST PUSH1 0x0 PUSH2 0x2291 PUSH1 0x11 DUP4 PUSH2 0x2165 JUMP JUMPDEST SWAP2 POP PUSH2 0x229C DUP3 PUSH2 0x225B JUMP JUMPDEST PUSH1 0x11 DUP3 ADD SWAP1 POP SWAP2 SWAP1 POP JUMP JUMPDEST PUSH32 0x222C226F776E65724E616D65223A220000000000000000000000000000000000 PUSH1 0x0 DUP3 ADD MSTORE POP JUMP JUMPDEST PUSH1 0x0 PUSH2 0x22DD PUSH1 0xF DUP4 PUSH2 0x2165 JUMP JUMPDEST SWAP2 POP PUSH2 0x22E8 DUP3 PUSH2 0x22A7 JUMP JUMPDEST PUSH1 0xF DUP3 ADD SWAP1 POP SWAP2 SWAP1 POP JUMP JUMPDEST PUSH1 0x0 DUP2 SLOAD PUSH2 0x2300 DUP2 PUSH2 0x19C2 JUMP JUMPDEST PUSH2 0x230A DUP2 DUP7 PUSH2 0x2165 JUMP JUMPDEST SWAP5 POP PUSH1 0x1 DUP3 AND PUSH1 0x0 DUP2 EQ PUSH2 0x2325 JUMPI PUSH1 0x1 DUP2 EQ PUSH2 0x233A JUMPI PUSH2 0x236D JUMP JUMPDEST PUSH1 0xFF NOT DUP4 AND DUP7 MSTORE DUP2 ISZERO ISZERO DUP3 MUL DUP7 ADD SWAP4 POP PUSH2 0x236D JUMP JUMPDEST PUSH2 0x2343 DUP6 PUSH2 0x1A09 JUMP JUMPDEST PUSH1 0x0 JUMPDEST DUP4 DUP2 LT ISZERO PUSH2 0x2365 JUMPI DUP2 SLOAD DUP2 DUP10 ADD MSTORE PUSH1 0x1 DUP3 ADD SWAP2 POP PUSH1 0x20 DUP2 ADD SWAP1 POP PUSH2 0x2346 JUMP JUMPDEST DUP4 DUP9 ADD SWAP6 POP POP POP JUMPDEST POP POP POP SWAP3 SWAP2 POP POP JUMP JUMPDEST PUSH32 0x222C2270726F6A6563744E616D65223A22000000000000000000000000000000 PUSH1 0x0 DUP3 ADD MSTORE POP JUMP JUMPDEST PUSH1 0x0 PUSH2 0x23AC PUSH1 0x11 DUP4 PUSH2 0x2165 JUMP JUMPDEST SWAP2 POP PUSH2 0x23B7 DUP3 PUSH2 0x2376 JUMP JUMPDEST PUSH1 0x11 DUP3 ADD SWAP1 POP SWAP2 SWAP1 POP JUMP JUMPDEST PUSH32 0x222C226465736372697074696F6E223A22000000000000000000000000000000 PUSH1 0x0 DUP3 ADD MSTORE POP JUMP JUMPDEST PUSH1 0x0 PUSH2 0x23F8 PUSH1 0x11 DUP4 PUSH2 0x2165 JUMP JUMPDEST SWAP2 POP PUSH2 0x2403 DUP3 PUSH2 0x23C2 JUMP JUMPDEST PUSH1 0x11 DUP3 ADD SWAP1 POP SWAP2 SWAP1 POP JUMP JUMPDEST PUSH32 0x222C22696D61676555726C223A22000000000000000000000000000000000000 PUSH1 0x0 DUP3 ADD MSTORE POP JUMP JUMPDEST PUSH1 0x0 PUSH2 0x2444 PUSH1 0xE DUP4 PUSH2 0x2165 JUMP JUMPDEST SWAP2 POP PUSH2 0x244F DUP3 PUSH2 0x240E JUMP JUMPDEST PUSH1 0xE DUP3 ADD SWAP1 POP SWAP2 SWAP1 POP JUMP JUMPDEST PUSH32 0x222C22676F616C416D6F756E74223A0000000000000000000000000000000000 PUSH1 0x0 DUP3 ADD MSTORE POP JUMP JUMPDEST PUSH1 0x0 PUSH2 0x2490 PUSH1 0xF DUP4 PUSH2 0x2165 JUMP JUMPDEST SWAP2 POP PUSH2 0x249B DUP3 PUSH2 0x245A JUMP JUMPDEST PUSH1 0xF DUP3 ADD SWAP1 POP SWAP2 SWAP1 POP JUMP JUMPDEST PUSH32 0x2C2266756E646564416D6F756E74223A00000000000000000000000000000000 PUSH1 0x0 DUP3 ADD MSTORE POP JUMP JUMPDEST PUSH1 0x0 PUSH2 0x24DC PUSH1 0x10 DUP4 PUSH2 0x2165 JUMP JUMPDEST SWAP2 POP PUSH2 0x24E7 DUP3 PUSH2 0x24A6 JUMP JUMPDEST PUSH1 0x10 DUP3 ADD SWAP1 POP SWAP2 SWAP1 POP JUMP JUMPDEST PUSH32 0x2C2269734F70656E223A00000000000000000000000000000000000000000000 PUSH1 0x0 DUP3 ADD MSTORE POP JUMP JUMPDEST PUSH1 0x0 PUSH2 0x2528 PUSH1 0xA DUP4 PUSH2 0x2165 JUMP JUMPDEST SWAP2 POP PUSH2 0x2533 DUP3 PUSH2 0x24F2 JUMP JUMPDEST PUSH1 0xA DUP3 ADD SWAP1 POP SWAP2 SWAP1 POP JUMP JUMPDEST PUSH32 0x7D00000000000000000000000000000000000000000000000000000000000000 PUSH1 0x0 DUP3 ADD MSTORE POP JUMP JUMPDEST PUSH1 0x0 PUSH2 0x2574 PUSH1 0x1 DUP4 PUSH2 0x2165 JUMP JUMPDEST SWAP2 POP PUSH2 0x257F DUP3 PUSH2 0x253E JUMP JUMPDEST PUSH1 0x1 DUP3 ADD SWAP1 POP SWAP2 SWAP1 POP JUMP JUMPDEST PUSH1 0x0 PUSH2 0x2596 DUP3 DUP14 PUSH2 0x2170 JUMP JUMPDEST SWAP2 POP PUSH2 0x25A1 DUP3 PUSH2 0x2238 JUMP JUMPDEST SWAP2 POP PUSH2 0x25AD DUP3 DUP13 PUSH2 0x2170 JUMP JUMPDEST SWAP2 POP PUSH2 0x25B8 DUP3 PUSH2 0x2284 JUMP JUMPDEST SWAP2 POP PUSH2 0x25C4 DUP3 DUP12 PUSH2 0x2170 JUMP JUMPDEST SWAP2 POP PUSH2 0x25CF DUP3 PUSH2 0x22D0 JUMP JUMPDEST SWAP2 POP PUSH2 0x25DB DUP3 DUP11 PUSH2 0x22F3 JUMP JUMPDEST SWAP2 POP PUSH2 0x25E6 DUP3 PUSH2 0x239F JUMP JUMPDEST SWAP2 POP PUSH2 0x25F2 DUP3 DUP10 PUSH2 0x22F3 JUMP JUMPDEST SWAP2 POP PUSH2 0x25FD DUP3 PUSH2 0x23EB JUMP JUMPDEST SWAP2 POP PUSH2 0x2609 DUP3 DUP9 PUSH2 0x22F3 JUMP JUMPDEST SWAP2 POP PUSH2 0x2614 DUP3 PUSH2 0x2437 JUMP JUMPDEST SWAP2 POP PUSH2 0x2620 DUP3 DUP8 PUSH2 0x22F3 JUMP JUMPDEST SWAP2 POP PUSH2 0x262B DUP3 PUSH2 0x2483 JUMP JUMPDEST SWAP2 POP PUSH2 0x2637 DUP3 DUP7 PUSH2 0x2170 JUMP JUMPDEST SWAP2 POP PUSH2 0x2642 DUP3 PUSH2 0x24CF JUMP JUMPDEST SWAP2 POP PUSH2 0x264E DUP3 DUP6 PUSH2 0x2170 JUMP JUMPDEST SWAP2 POP PUSH2 0x2659 DUP3 PUSH2 0x251B JUMP JUMPDEST SWAP2 POP PUSH2 0x2665 DUP3 DUP5 PUSH2 0x2170 JUMP JUMPDEST SWAP2 POP PUSH2 0x2670 DUP3 PUSH2 0x2567 JUMP JUMPDEST SWAP2 POP DUP2 SWAP1 POP SWAP12 SWAP11 POP POP POP POP POP POP POP POP POP POP POP JUMP JUMPDEST PUSH32 0x5D00000000000000000000000000000000000000000000000000000000000000 PUSH1 0x0 DUP3 ADD MSTORE POP JUMP JUMPDEST PUSH1 0x0 PUSH2 0x26BA PUSH1 0x1 DUP4 PUSH2 0x2165 JUMP JUMPDEST SWAP2 POP PUSH2 0x26C5 DUP3 PUSH2 0x2684 JUMP JUMPDEST PUSH1 0x1 DUP3 ADD SWAP1 POP SWAP2 SWAP1 POP JUMP JUMPDEST PUSH1 0x0 PUSH2 0x26DC DUP3 DUP5 PUSH2 0x2170 JUMP JUMPDEST SWAP2 POP PUSH2 0x26E7 DUP3 PUSH2 0x26AD JUMP JUMPDEST SWAP2 POP DUP2 SWAP1 POP SWAP3 SWAP2 POP POP JUMP JUMPDEST PUSH32 0x4E487B7100000000000000000000000000000000000000000000000000000000 PUSH1 0x0 MSTORE PUSH1 0x12 PUSH1 0x4 MSTORE PUSH1 0x24 PUSH1 0x0 REVERT JUMPDEST PUSH1 0x0 PUSH2 0x272C DUP3 PUSH2 0x12AA JUMP JUMPDEST SWAP2 POP PUSH2 0x2737 DUP4 PUSH2 0x12AA JUMP JUMPDEST SWAP3 POP DUP3 PUSH2 0x2747 JUMPI PUSH2 0x2746 PUSH2 0x26F2 JUMP JUMPDEST JUMPDEST DUP3 DUP3 DIV SWAP1 POP SWAP3 SWAP2 POP POP JUMP JUMPDEST PUSH1 0x0 PUSH2 0x275D DUP3 PUSH2 0x12AA JUMP JUMPDEST SWAP2 POP PUSH2 0x2768 DUP4 PUSH2 0x12AA JUMP JUMPDEST SWAP3 POP DUP3 PUSH2 0x2778 JUMPI PUSH2 0x2777 PUSH2 0x26F2 JUMP JUMPDEST JUMPDEST DUP3 DUP3 MOD SWAP1 POP SWAP3 SWAP2 POP POP JUMP JUMPDEST PUSH1 0x0 DUP2 PUSH1 0x60 SHL SWAP1 POP SWAP2 SWAP1 POP JUMP JUMPDEST PUSH1 0x0 PUSH2 0x279B DUP3 PUSH2 0x2783 JUMP JUMPDEST SWAP1 POP SWAP2 SWAP1 POP JUMP JUMPDEST PUSH1 0x0 PUSH2 0x27AD DUP3 PUSH2 0x2790 JUMP JUMPDEST SWAP1 POP SWAP2 SWAP1 POP JUMP JUMPDEST PUSH2 0x27C5 PUSH2 0x27C0 DUP3 PUSH2 0x1693 JUMP JUMPDEST PUSH2 0x27A2 JUMP JUMPDEST DUP3 MSTORE POP POP JUMP JUMPDEST PUSH1 0x0 PUSH2 0x27D7 DUP3 DUP5 PUSH2 0x27B4 JUMP JUMPDEST PUSH1 0x14 DUP3 ADD SWAP2 POP DUP2 SWAP1 POP SWAP3 SWAP2 POP POP JUMP INVALID LOG2 PUSH5 0x6970667358 0x22 SLT KECCAK256 LT SLOAD SWAP9 DUP10 0xE5 0xFB 0xB2 0x49 0xBD DUP3 SWAP8 0xF7 0x2E PUSH8 0x60458E623881E6B2 SWAP9 0xCF 0xAF 0xD2 0x5D MSTORE8 CODESIZE DUP9 LOG3 0xEF PUSH5 0x736F6C6343 STOP ADDMOD EQ STOP CALLER "},"methodIdentifiers":{"createProject(string,string,string,string,uint256)":"a78c389a","fundProject(uint256)":"6c563abe","get(uint256)":"9507d39a","getAll()":"53ed5143","getAllProjectsJSON()":"ccadf5fe","projectData(uint256)":"8903f70c","push(string)":"4f3d057a","remove(uint256)":"4cc82215","removeProject(uint256)":"5873f998","serialNumCounter()":"0caf5741","updateProjectDescription(uint256,string)":"a3b2cca6"}}}}}