{
  "_format": "hh-sol-artifact-1",
  "contractName": "dFUSE",
  "sourceName": "contracts/dFUSE.sol",
  "abi": [
    {
      "anonymous": false,
      "inputs": [
        {
          "indexed": false,
          "internalType": "uint256",
          "name": "projectId",
          "type": "uint256"
        },
        {
          "indexed": false,
          "internalType": "address",
          "name": "funder",
          "type": "address"
        },
        {
          "indexed": false,
          "internalType": "uint256",
          "name": "amount",
          "type": "uint256"
        }
      ],
      "name": "FundingReceived",
      "type": "event"
    },
    {
      "anonymous": false,
      "inputs": [
        {
          "indexed": false,
          "internalType": "uint256",
          "name": "projectId",
          "type": "uint256"
        }
      ],
      "name": "ProjectClosed",
      "type": "event"
    },
    {
      "anonymous": false,
      "inputs": [
        {
          "indexed": false,
          "internalType": "uint256",
          "name": "projectId",
          "type": "uint256"
        },
        {
          "indexed": false,
          "internalType": "address",
          "name": "ownerAddress",
          "type": "address"
        },
        {
          "indexed": false,
          "internalType": "string",
          "name": "projectName",
          "type": "string"
        },
        {
          "indexed": false,
          "internalType": "uint256",
          "name": "goalAmount",
          "type": "uint256"
        }
      ],
      "name": "ProjectCreated",
      "type": "event"
    },
    {
      "anonymous": false,
      "inputs": [
        {
          "indexed": false,
          "internalType": "uint256",
          "name": "projectId",
          "type": "uint256"
        },
        {
          "indexed": false,
          "internalType": "address",
          "name": "remover",
          "type": "address"
        }
      ],
      "name": "ProjectRemoved",
      "type": "event"
    },
    {
      "anonymous": false,
      "inputs": [
        {
          "indexed": false,
          "internalType": "uint256",
          "name": "projectId",
          "type": "uint256"
        },
        {
          "indexed": false,
          "internalType": "string",
          "name": "newDescription",
          "type": "string"
        }
      ],
      "name": "ProjectUpdated",
      "type": "event"
    },
    {
      "inputs": [
        {
          "internalType": "string",
          "name": "_ownerName",
          "type": "string"
        },
        {
          "internalType": "string",
          "name": "_projectName",
          "type": "string"
        },
        {
          "internalType": "string",
          "name": "_description",
          "type": "string"
        },
        {
          "internalType": "string",
          "name": "_imageUrl",
          "type": "string"
        },
        {
          "internalType": "uint256",
          "name": "_goalAmount",
          "type": "uint256"
        }
      ],
      "name": "createProject",
      "outputs": [],
      "stateMutability": "nonpayable",
      "type": "function"
    },
    {
      "inputs": [
        {
          "internalType": "uint256",
          "name": "projectId",
          "type": "uint256"
        },
        {
          "internalType": "uint256",
          "name": "amount",
          "type": "uint256"
        }
      ],
      "name": "fundProject",
      "outputs": [],
      "stateMutability": "payable",
      "type": "function"
    },
    {
      "inputs": [],
      "name": "getAllProjects",
      "outputs": [
        {
          "components": [
            {
              "internalType": "address",
              "name": "ownerAddress",
              "type": "address"
            },
            {
              "internalType": "string",
              "name": "ownerName",
              "type": "string"
            },
            {
              "internalType": "string",
              "name": "projectName",
              "type": "string"
            },
            {
              "internalType": "string",
              "name": "description",
              "type": "string"
            },
            {
              "internalType": "string",
              "name": "imageUrl",
              "type": "string"
            },
            {
              "internalType": "uint256",
              "name": "goalAmount",
              "type": "uint256"
            },
            {
              "internalType": "uint256",
              "name": "fundedAmount",
              "type": "uint256"
            },
            {
              "internalType": "bool",
              "name": "isOpen",
              "type": "bool"
            }
          ],
          "internalType": "struct dFUSE.Project[]",
          "name": "",
          "type": "tuple[]"
        }
      ],
      "stateMutability": "view",
      "type": "function"
    },
    {
      "inputs": [],
      "name": "projectCounter",
      "outputs": [
        {
          "internalType": "uint256",
          "name": "",
          "type": "uint256"
        }
      ],
      "stateMutability": "view",
      "type": "function"
    },
    {
      "inputs": [
        {
          "internalType": "uint256",
          "name": "projectId",
          "type": "uint256"
        }
      ],
      "name": "removeProject",
      "outputs": [],
      "stateMutability": "nonpayable",
      "type": "function"
    },
    {
      "inputs": [
        {
          "internalType": "uint256",
          "name": "projectId",
          "type": "uint256"
        },
        {
          "internalType": "string",
          "name": "_newDescription",
          "type": "string"
        }
      ],
      "name": "updateProjectDescription",
      "outputs": [],
      "stateMutability": "nonpayable",
      "type": "function"
    }
  ],
  "bytecode": "0x608060405234801561001057600080fd5b506119ee806100206000396000f3fe6080604052600436106100555760003560e01c806301cda5a41461005a5780635873f9981461007657806380d038291461009f578063a3b2cca6146100ca578063a78c389a146100f3578063f8a518ed1461011c575b600080fd5b610074600480360381019061006f9190610cac565b610147565b005b34801561008257600080fd5b5061009d60048036038101906100989190610cec565b6103c8565b005b3480156100ab57600080fd5b506100b46105af565b6040516100c19190610f9b565b60405180910390f35b3480156100d657600080fd5b506100f160048036038101906100ec91906110f2565b6108dc565b005b3480156100ff57600080fd5b5061011a6004803603810190610115919061114e565b610a47565b005b34801561012857600080fd5b50610131610bff565b60405161013e9190611248565b60405180910390f35b81600154811061018c576040517f08c379a0000000000000000000000000000000000000000000000000000000008152600401610183906112c0565b60405180910390fd5b82600081815481106101a1576101a06112e0565b5b906000526020600020906008020160070160009054906101000a900460ff166101ff576040517f08c379a00000000000000000000000000000000000000000000000000000000081526004016101f69061135b565b60405180910390fd5b60008311610242576040517f08c379a0000000000000000000000000000000000000000000000000000000008152600401610239906113ed565b60405180910390fd5b82341015610285576040517f08c379a000000000000000000000000000000000000000000000000000000000815260040161027c90611459565b60405180910390fd5b826000858154811061029a576102996112e0565b5b906000526020600020906008020160060160008282546102ba91906114a8565b92505081905550600084815481106102d5576102d46112e0565b5b906000526020600020906008020160050154600085815481106102fb576102fa6112e0565b5b90600052602060002090600802016006015410610387576000808581548110610327576103266112e0565b5b906000526020600020906008020160070160006101000a81548160ff0219169083151502179055507fa10da3bd85a8a7569325abd94177d0bbf25fbded5a3f6622a5588ce2cf1153ba8460405161037e9190611248565b60405180910390a15b7fc8fceb94d8cfaf3010a32f39dbdb0c0b361b10cdd6c7299d60376c85ff6128378433856040516103ba939291906114eb565b60405180910390a150505050565b80600154811061040d576040517f08c379a0000000000000000000000000000000000000000000000000000000008152600401610404906112c0565b60405180910390fd5b8160008181548110610422576104216112e0565b5b906000526020600020906008020160000160009054906101000a900473ffffffffffffffffffffffffffffffffffffffff1673ffffffffffffffffffffffffffffffffffffffff163373ffffffffffffffffffffffffffffffffffffffff16146104c1576040517f08c379a00000000000000000000000000000000000000000000000000000000081526004016104b890611594565b60405180910390fd5b600083815481106104d5576104d46112e0565b5b9060005260206000209060080201600080820160006101000a81549073ffffffffffffffffffffffffffffffffffffffff021916905560018201600061051b9190610c05565b60028201600061052b9190610c05565b60038201600061053b9190610c05565b60048201600061054b9190610c05565b600582016000905560068201600090556007820160006101000a81549060ff021916905550507fba1c16e049c7a348b951726f087bd968f9f40e6c64c8cf9ae55ed756ae62944083336040516105a29291906115b4565b60405180910390a1505050565b60606000805480602002602001604051908101604052809291908181526020016000905b828210156108d35783829060005260206000209060080201604051806101000160405290816000820160009054906101000a900473ffffffffffffffffffffffffffffffffffffffff1673ffffffffffffffffffffffffffffffffffffffff1673ffffffffffffffffffffffffffffffffffffffff16815260200160018201805461065d9061160c565b80601f01602080910402602001604051908101604052809291908181526020018280546106899061160c565b80156106d65780601f106106ab576101008083540402835291602001916106d6565b820191906000526020600020905b8154815290600101906020018083116106b957829003601f168201915b505050505081526020016002820180546106ef9061160c565b80601f016020809104026020016040519081016040528092919081815260200182805461071b9061160c565b80156107685780601f1061073d57610100808354040283529160200191610768565b820191906000526020600020905b81548152906001019060200180831161074b57829003601f168201915b505050505081526020016003820180546107819061160c565b80601f01602080910402602001604051908101604052809291908181526020018280546107ad9061160c565b80156107fa5780601f106107cf576101008083540402835291602001916107fa565b820191906000526020600020905b8154815290600101906020018083116107dd57829003601f168201915b505050505081526020016004820180546108139061160c565b80601f016020809104026020016040519081016040528092919081815260200182805461083f9061160c565b801561088c5780601f106108615761010080835404028352916020019161088c565b820191906000526020600020905b81548152906001019060200180831161086f57829003601f168201915b5050505050815260200160058201548152602001600682015481526020016007820160009054906101000a900460ff161515151581525050815260200190600101906105d3565b50505050905090565b816001548110610921576040517f08c379a0000000000000000000000000000000000000000000000000000000008152600401610918906112c0565b60405180910390fd5b8260008181548110610936576109356112e0565b5b906000526020600020906008020160000160009054906101000a900473ffffffffffffffffffffffffffffffffffffffff1673ffffffffffffffffffffffffffffffffffffffff163373ffffffffffffffffffffffffffffffffffffffff16146109d5576040517f08c379a00000000000000000000000000000000000000000000000000000000081526004016109cc90611594565b60405180910390fd5b82600085815481106109ea576109e96112e0565b5b90600052602060002090600802016003019081610a0791906117e9565b507fd59ff490e419b5a72d916db4f77bc918cb64099584e8605b5a5aa543eacc0c078484604051610a399291906118f4565b60405180910390a150505050565b60006040518061010001604052803373ffffffffffffffffffffffffffffffffffffffff1681526020018781526020018681526020018581526020018481526020018381526020016000815260200160011515815250908060018154018082558091505060019003906000526020600020906008020160009091909190915060008201518160000160006101000a81548173ffffffffffffffffffffffffffffffffffffffff021916908373ffffffffffffffffffffffffffffffffffffffff1602179055506020820151816001019081610b2291906117e9565b506040820151816002019081610b3891906117e9565b506060820151816003019081610b4e91906117e9565b506080820151816004019081610b6491906117e9565b5060a0820151816005015560c0820151816006015560e08201518160070160006101000a81548160ff02191690831515021790555050506000600154905060016000815480929190610bb590611924565b91905055507f51d08cb6cfa640a387210fb69df925dfb70169ae7373f8ecd40b977b0c800d9a81338785604051610bef949392919061196c565b60405180910390a1505050505050565b60015481565b508054610c119061160c565b6000825580601f10610c235750610c42565b601f016020900490600052602060002090810190610c419190610c45565b5b50565b5b80821115610c5e576000816000905550600101610c46565b5090565b6000604051905090565b600080fd5b600080fd5b6000819050919050565b610c8981610c76565b8114610c9457600080fd5b50565b600081359050610ca681610c80565b92915050565b60008060408385031215610cc357610cc2610c6c565b5b6000610cd185828601610c97565b9250506020610ce285828601610c97565b9150509250929050565b600060208284031215610d0257610d01610c6c565b5b6000610d1084828501610c97565b91505092915050565b600081519050919050565b600082825260208201905092915050565b6000819050602082019050919050565b600073ffffffffffffffffffffffffffffffffffffffff82169050919050565b6000610d7082610d45565b9050919050565b610d8081610d65565b82525050565b600081519050919050565b600082825260208201905092915050565b60005b83811015610dc0578082015181840152602081019050610da5565b60008484015250505050565b6000601f19601f8301169050919050565b6000610de882610d86565b610df28185610d91565b9350610e02818560208601610da2565b610e0b81610dcc565b840191505092915050565b610e1f81610c76565b82525050565b60008115159050919050565b610e3a81610e25565b82525050565b600061010083016000830151610e596000860182610d77565b5060208301518482036020860152610e718282610ddd565b91505060408301518482036040860152610e8b8282610ddd565b91505060608301518482036060860152610ea58282610ddd565b91505060808301518482036080860152610ebf8282610ddd565b91505060a0830151610ed460a0860182610e16565b5060c0830151610ee760c0860182610e16565b5060e0830151610efa60e0860182610e31565b508091505092915050565b6000610f118383610e40565b905092915050565b6000602082019050919050565b6000610f3182610d19565b610f3b8185610d24565b935083602082028501610f4d85610d35565b8060005b85811015610f895784840389528151610f6a8582610f05565b9450610f7583610f19565b925060208a01995050600181019050610f51565b50829750879550505050505092915050565b60006020820190508181036000830152610fb58184610f26565b905092915050565b600080fd5b600080fd5b7f4e487b7100000000000000000000000000000000000000000000000000000000600052604160045260246000fd5b610fff82610dcc565b810181811067ffffffffffffffff8211171561101e5761101d610fc7565b5b80604052505050565b6000611031610c62565b905061103d8282610ff6565b919050565b600067ffffffffffffffff82111561105d5761105c610fc7565b5b61106682610dcc565b9050602081019050919050565b82818337600083830152505050565b600061109561109084611042565b611027565b9050828152602081018484840111156110b1576110b0610fc2565b5b6110bc848285611073565b509392505050565b600082601f8301126110d9576110d8610fbd565b5b81356110e9848260208601611082565b91505092915050565b6000806040838503121561110957611108610c6c565b5b600061111785828601610c97565b925050602083013567ffffffffffffffff81111561113857611137610c71565b5b611144858286016110c4565b9150509250929050565b600080600080600060a0868803121561116a57611169610c6c565b5b600086013567ffffffffffffffff81111561118857611187610c71565b5b611194888289016110c4565b955050602086013567ffffffffffffffff8111156111b5576111b4610c71565b5b6111c1888289016110c4565b945050604086013567ffffffffffffffff8111156111e2576111e1610c71565b5b6111ee888289016110c4565b935050606086013567ffffffffffffffff81111561120f5761120e610c71565b5b61121b888289016110c4565b925050608061122c88828901610c97565b9150509295509295909350565b61124281610c76565b82525050565b600060208201905061125d6000830184611239565b92915050565b600082825260208201905092915050565b7f50726f6a65637420646f6573206e6f7420657869737400000000000000000000600082015250565b60006112aa601683611263565b91506112b582611274565b602082019050919050565b600060208201905081810360008301526112d98161129d565b9050919050565b7f4e487b7100000000000000000000000000000000000000000000000000000000600052603260045260246000fd5b7f50726f6a656374206973206e6f74206f70656e00000000000000000000000000600082015250565b6000611345601383611263565b91506113508261130f565b602082019050919050565b6000602082019050818103600083015261137481611338565b9050919050565b7f46756e64696e6720616d6f756e74206d7573742062652067726561746572207460008201527f68616e2030000000000000000000000000000000000000000000000000000000602082015250565b60006113d7602583611263565b91506113e28261137b565b604082019050919050565b60006020820190508181036000830152611406816113ca565b9050919050565b7f496e73756666696369656e742045746865722073656e74000000000000000000600082015250565b6000611443601783611263565b915061144e8261140d565b602082019050919050565b6000602082019050818103600083015261147281611436565b9050919050565b7f4e487b7100000000000000000000000000000000000000000000000000000000600052601160045260246000fd5b60006114b382610c76565b91506114be83610c76565b92508282019050808211156114d6576114d5611479565b5b92915050565b6114e581610d65565b82525050565b60006060820190506115006000830186611239565b61150d60208301856114dc565b61151a6040830184611239565b949350505050565b7f4f6e6c79207468652070726f6a656374206f776e65722063616e20706572666f60008201527f726d207468697320616374696f6e000000000000000000000000000000000000602082015250565b600061157e602e83611263565b915061158982611522565b604082019050919050565b600060208201905081810360008301526115ad81611571565b9050919050565b60006040820190506115c96000830185611239565b6115d660208301846114dc565b9392505050565b7f4e487b7100000000000000000000000000000000000000000000000000000000600052602260045260246000fd5b6000600282049050600182168061162457607f821691505b602082108103611637576116366115dd565b5b50919050565b60008190508160005260206000209050919050565b60006020601f8301049050919050565b600082821b905092915050565b60006008830261169f7fffffffffffffffffffffffffffffffffffffffffffffffffffffffffffffffff82611662565b6116a98683611662565b95508019841693508086168417925050509392505050565b6000819050919050565b60006116e66116e16116dc84610c76565b6116c1565b610c76565b9050919050565b6000819050919050565b611700836116cb565b61171461170c826116ed565b84845461166f565b825550505050565b600090565b61172961171c565b6117348184846116f7565b505050565b5b818110156117585761174d600082611721565b60018101905061173a565b5050565b601f82111561179d5761176e8161163d565b61177784611652565b81016020851015611786578190505b61179a61179285611652565b830182611739565b50505b505050565b600082821c905092915050565b60006117c0600019846008026117a2565b1980831691505092915050565b60006117d983836117af565b9150826002028217905092915050565b6117f282610d86565b67ffffffffffffffff81111561180b5761180a610fc7565b5b611815825461160c565b61182082828561175c565b600060209050601f8311600181146118535760008415611841578287015190505b61184b85826117cd565b8655506118b3565b601f1984166118618661163d565b60005b8281101561188957848901518255600182019150602085019450602081019050611864565b868310156118a657848901516118a2601f8916826117af565b8355505b6001600288020188555050505b505050505050565b60006118c682610d86565b6118d08185611263565b93506118e0818560208601610da2565b6118e981610dcc565b840191505092915050565b60006040820190506119096000830185611239565b818103602083015261191b81846118bb565b90509392505050565b600061192f82610c76565b91507fffffffffffffffffffffffffffffffffffffffffffffffffffffffffffffffff820361196157611960611479565b5b600182019050919050565b60006080820190506119816000830187611239565b61198e60208301866114dc565b81810360408301526119a081856118bb565b90506119af6060830184611239565b9594505050505056fea2646970667358221220fb7f9104f7516ace95f3eceba810a25b20c346679a5fd91c77f105618c6970ff64736f6c63430008140033",
  "linkReferences": {},
  "deployedLinkReferences": {}
}