{
  "_format": "hh-sol-artifact-1",
  "contractName": "dFUSE",
  "sourceName": "contracts/dFUSE.sol",
  "abi": [
    {
      "anonymous": false,
      "inputs": [
        {
          "indexed": false,
          "internalType": "uint256",
          "name": "serialNum",
          "type": "uint256"
        },
        {
          "indexed": false,
          "internalType": "address",
          "name": "funder",
          "type": "address"
        },
        {
          "indexed": false,
          "internalType": "uint256",
          "name": "amount",
          "type": "uint256"
        }
      ],
      "name": "FundingReceived",
      "type": "event"
    },
    {
      "anonymous": false,
      "inputs": [
        {
          "indexed": false,
          "internalType": "uint256",
          "name": "serialNum",
          "type": "uint256"
        }
      ],
      "name": "ProjectClosed",
      "type": "event"
    },
    {
      "anonymous": false,
      "inputs": [
        {
          "indexed": false,
          "internalType": "uint256",
          "name": "serialNum",
          "type": "uint256"
        },
        {
          "indexed": false,
          "internalType": "address",
          "name": "ownerAddress",
          "type": "address"
        },
        {
          "indexed": false,
          "internalType": "string",
          "name": "projectName",
          "type": "string"
        }
      ],
      "name": "ProjectCreated",
      "type": "event"
    },
    {
      "anonymous": false,
      "inputs": [
        {
          "indexed": false,
          "internalType": "uint256",
          "name": "serialNum",
          "type": "uint256"
        },
        {
          "indexed": false,
          "internalType": "address",
          "name": "remover",
          "type": "address"
        }
      ],
      "name": "ProjectRemoved",
      "type": "event"
    },
    {
      "anonymous": false,
      "inputs": [
        {
          "indexed": false,
          "internalType": "uint256",
          "name": "serialNum",
          "type": "uint256"
        },
        {
          "indexed": false,
          "internalType": "string",
          "name": "newDescription",
          "type": "string"
        }
      ],
      "name": "ProjectUpdated",
      "type": "event"
    },
    {
      "inputs": [
        {
          "internalType": "string",
          "name": "_ownerName",
          "type": "string"
        },
        {
          "internalType": "string",
          "name": "_projectName",
          "type": "string"
        },
        {
          "internalType": "string",
          "name": "_description",
          "type": "string"
        },
        {
          "internalType": "string",
          "name": "_imageUrl",
          "type": "string"
        },
        {
          "internalType": "uint256",
          "name": "_goalAmount",
          "type": "uint256"
        }
      ],
      "name": "createProject",
      "outputs": [],
      "stateMutability": "nonpayable",
      "type": "function"
    },
    {
      "inputs": [
        {
          "internalType": "uint256",
          "name": "_serialNum",
          "type": "uint256"
        }
      ],
      "name": "fundProject",
      "outputs": [],
      "stateMutability": "payable",
      "type": "function"
    },
    {
      "inputs": [
        {
          "internalType": "uint256",
          "name": "index",
          "type": "uint256"
        }
      ],
      "name": "get",
      "outputs": [
        {
          "internalType": "string",
          "name": "",
          "type": "string"
        }
      ],
      "stateMutability": "view",
      "type": "function"
    },
    {
      "inputs": [],
      "name": "getAll",
      "outputs": [
        {
          "internalType": "string[]",
          "name": "",
          "type": "string[]"
        }
      ],
      "stateMutability": "view",
      "type": "function"
    },
    {
      "inputs": [],
      "name": "getAllProjectsJSON",
      "outputs": [
        {
          "internalType": "string",
          "name": "",
          "type": "string"
        }
      ],
      "stateMutability": "view",
      "type": "function"
    },
    {
      "inputs": [
        {
          "internalType": "uint256",
          "name": "",
          "type": "uint256"
        }
      ],
      "name": "projectData",
      "outputs": [
        {
          "internalType": "address",
          "name": "ownerAddress",
          "type": "address"
        },
        {
          "internalType": "string",
          "name": "ownerName",
          "type": "string"
        },
        {
          "internalType": "string",
          "name": "projectName",
          "type": "string"
        },
        {
          "internalType": "string",
          "name": "description",
          "type": "string"
        },
        {
          "internalType": "string",
          "name": "imageUrl",
          "type": "string"
        },
        {
          "internalType": "uint256",
          "name": "goalAmount",
          "type": "uint256"
        },
        {
          "internalType": "uint256",
          "name": "fundedAmount",
          "type": "uint256"
        },
        {
          "internalType": "bool",
          "name": "isOpen",
          "type": "bool"
        }
      ],
      "stateMutability": "view",
      "type": "function"
    },
    {
      "inputs": [
        {
          "internalType": "string",
          "name": "project",
          "type": "string"
        }
      ],
      "name": "push",
      "outputs": [],
      "stateMutability": "nonpayable",
      "type": "function"
    },
    {
      "inputs": [
        {
          "internalType": "uint256",
          "name": "index",
          "type": "uint256"
        }
      ],
      "name": "remove",
      "outputs": [
        {
          "internalType": "bool",
          "name": "",
          "type": "bool"
        }
      ],
      "stateMutability": "nonpayable",
      "type": "function"
    },
    {
      "inputs": [
        {
          "internalType": "uint256",
          "name": "_serialNum",
          "type": "uint256"
        }
      ],
      "name": "removeProject",
      "outputs": [],
      "stateMutability": "nonpayable",
      "type": "function"
    },
    {
      "inputs": [],
      "name": "serialNumCounter",
      "outputs": [
        {
          "internalType": "uint256",
          "name": "",
          "type": "uint256"
        }
      ],
      "stateMutability": "view",
      "type": "function"
    },
    {
      "inputs": [
        {
          "internalType": "uint256",
          "name": "_serialNum",
          "type": "uint256"
        },
        {
          "internalType": "string",
          "name": "_newDescription",
          "type": "string"
        }
      ],
      "name": "updateProjectDescription",
      "outputs": [],
      "stateMutability": "nonpayable",
      "type": "function"
    }
  ],
  "bytecode": "0x608060405260405180602001604052806040518060400160405280600581526020017f4f6d6f726900000000000000000000000000000000000000000000000000000081525081525060009060016200005a9291906200006f565b503480156200006857600080fd5b50620004bd565b828054828255906000526020600020908101928215620000bc579160200282015b82811115620000bb578251829081620000aa9190620003d6565b509160200191906001019062000090565b5b509050620000cb9190620000cf565b5090565b5b80821115620000f35760008181620000e99190620000f7565b50600101620000d0565b5090565b5080546200010590620001c5565b6000825580601f106200011957506200013a565b601f0160209004906000526020600020908101906200013991906200013d565b5b50565b5b80821115620001585760008160009055506001016200013e565b5090565b600081519050919050565b7f4e487b7100000000000000000000000000000000000000000000000000000000600052604160045260246000fd5b7f4e487b7100000000000000000000000000000000000000000000000000000000600052602260045260246000fd5b60006002820490506001821680620001de57607f821691505b602082108103620001f457620001f362000196565b5b50919050565b60008190508160005260206000209050919050565b60006020601f8301049050919050565b600082821b905092915050565b6000600883026200025e7fffffffffffffffffffffffffffffffffffffffffffffffffffffffffffffffff826200021f565b6200026a86836200021f565b95508019841693508086168417925050509392505050565b6000819050919050565b6000819050919050565b6000620002b7620002b1620002ab8462000282565b6200028c565b62000282565b9050919050565b6000819050919050565b620002d38362000296565b620002eb620002e282620002be565b8484546200022c565b825550505050565b600090565b62000302620002f3565b6200030f818484620002c8565b505050565b5b8181101562000337576200032b600082620002f8565b60018101905062000315565b5050565b601f82111562000386576200035081620001fa565b6200035b846200020f565b810160208510156200036b578190505b620003836200037a856200020f565b83018262000314565b50505b505050565b600082821c905092915050565b6000620003ab600019846008026200038b565b1980831691505092915050565b6000620003c6838362000398565b9150826002028217905092915050565b620003e1826200015c565b67ffffffffffffffff811115620003fd57620003fc62000167565b5b620004098254620001c5565b620004168282856200033b565b600060209050601f8311600181146200044e576000841562000439578287015190505b620004458582620003b8565b865550620004b5565b601f1984166200045e86620001fa565b60005b82811015620004885784890151825560018201915060208501945060208101905062000461565b86831015620004a85784890151620004a4601f89168262000398565b8355505b6001600288020188555050505b505050505050565b61281c80620004cd6000396000f3fe60806040526004361061009c5760003560e01c80636c563abe116100645780636c563abe146101865780638903f70c146101a25780639507d39a146101e6578063a3b2cca614610223578063a78c389a1461024c578063ccadf5fe146102755761009c565b80630caf5741146100a15780634cc82215146100cc5780634f3d057a1461010957806353ed5143146101325780635873f9981461015d575b600080fd5b3480156100ad57600080fd5b506100b66102a0565b6040516100c391906112c3565b60405180910390f35b3480156100d857600080fd5b506100f360048036038101906100ee919061131e565b6102a6565b6040516101009190611366565b60405180910390f35b34801561011557600080fd5b50610130600480360381019061012b91906114c7565b610394565b005b34801561013e57600080fd5b506101476103cc565b6040516101549190611651565b60405180910390f35b34801561016957600080fd5b50610184600480360381019061017f919061131e565b6104a5565b005b6101a0600480360381019061019b919061131e565b61066e565b005b3480156101ae57600080fd5b506101c960048036038101906101c4919061131e565b6108b0565b6040516101dd9897969594939291906116fe565b60405180910390f35b3480156101f257600080fd5b5061020d6004803603810190610208919061131e565b610b45565b60405161021a9190611798565b60405180910390f35b34801561022f57600080fd5b5061024a600480360381019061024591906117ba565b610bf5565b005b34801561025857600080fd5b50610273600480360381019061026e9190611816565b610d42565b005b34801561028157600080fd5b5061028a610e69565b6040516102979190611798565b60405180910390f35b60025481565b60008082101580156102bc575060008054905082105b1561035457600060016000805490506102d59190611930565b815481106102e6576102e5611964565b5b906000526020600020016000838154811061030457610303611964565b5b90600052602060002001908161031a9190611bca565b50600080548061032d5761032c611cb2565b5b600190038181906000526020600020016000610349919061124d565b90556001905061038f565b6040517f08c379a000000000000000000000000000000000000000000000000000000000815260040161038690611d2d565b60405180910390fd5b919050565b6000819080600181540180825580915050600190039060005260206000200160009091909190915090816103c89190611d4d565b5050565b60606000805480602002602001604051908101604052809291908181526020016000905b8282101561049c57838290600052602060002001805461040f906119c2565b80601f016020809104026020016040519081016040528092919081815260200182805461043b906119c2565b80156104885780601f1061045d57610100808354040283529160200191610488565b820191906000526020600020905b81548152906001019060200180831161046b57829003601f168201915b5050505050815260200190600101906103f0565b50505050905090565b8060025481106104ea576040517f08c379a00000000000000000000000000000000000000000000000000000000081526004016104e190611e6b565b60405180910390fd5b816001600082815260200190815260200160002060000160009054906101000a900473ffffffffffffffffffffffffffffffffffffffff1673ffffffffffffffffffffffffffffffffffffffff163373ffffffffffffffffffffffffffffffffffffffff161461058f576040517f08c379a000000000000000000000000000000000000000000000000000000000815260040161058690611efd565b60405180910390fd5b60016000848152602001908152602001600020600080820160006101000a81549073ffffffffffffffffffffffffffffffffffffffff02191690556001820160006105da919061124d565b6002820160006105ea919061124d565b6003820160006105fa919061124d565b60048201600061060a919061124d565b600582016000905560068201600090556007820160006101000a81549060ff021916905550507fba1c16e049c7a348b951726f087bd968f9f40e6c64c8cf9ae55ed756ae6294408333604051610661929190611f1d565b60405180910390a1505050565b8060025481106106b3576040517f08c379a00000000000000000000000000000000000000000000000000000000081526004016106aa90611e6b565b60405180910390fd5b816001600082815260200190815260200160002060070160009054906101000a900460ff16610717576040517f08c379a000000000000000000000000000000000000000000000000000000000815260040161070e90611f92565b60405180910390fd5b6000341161075a576040517f08c379a000000000000000000000000000000000000000000000000000000000815260040161075190612024565b60405180910390fd5b6000600160008581526020019081526020016000206006015460016000868152602001908152602001600020600501546107949190611930565b90506000349050818111156107a7578190505b806001600087815260200190815260200160002060060160008282546107cd9190612044565b92505081905550600160008681526020019081526020016000206005015460016000878152602001908152602001600020600601541061086e5760006001600087815260200190815260200160002060070160006101000a81548160ff0219169083151502179055507fa10da3bd85a8a7569325abd94177d0bbf25fbded5a3f6622a5588ce2cf1153ba8560405161086591906112c3565b60405180910390a15b7fc8fceb94d8cfaf3010a32f39dbdb0c0b361b10cdd6c7299d60376c85ff6128378533836040516108a193929190612078565b60405180910390a15050505050565b60016020528060005260406000206000915090508060000160009054906101000a900473ffffffffffffffffffffffffffffffffffffffff16908060010180546108f9906119c2565b80601f0160208091040260200160405190810160405280929190818152602001828054610925906119c2565b80156109725780601f1061094757610100808354040283529160200191610972565b820191906000526020600020905b81548152906001019060200180831161095557829003601f168201915b505050505090806002018054610987906119c2565b80601f01602080910402602001604051908101604052809291908181526020018280546109b3906119c2565b8015610a005780601f106109d557610100808354040283529160200191610a00565b820191906000526020600020905b8154815290600101906020018083116109e357829003601f168201915b505050505090806003018054610a15906119c2565b80601f0160208091040260200160405190810160405280929190818152602001828054610a41906119c2565b8015610a8e5780601f10610a6357610100808354040283529160200191610a8e565b820191906000526020600020905b815481529060010190602001808311610a7157829003601f168201915b505050505090806004018054610aa3906119c2565b80601f0160208091040260200160405190810160405280929190818152602001828054610acf906119c2565b8015610b1c5780601f10610af157610100808354040283529160200191610b1c565b820191906000526020600020905b815481529060010190602001808311610aff57829003601f168201915b5050505050908060050154908060060154908060070160009054906101000a900460ff16905088565b606060008281548110610b5b57610b5a611964565b5b906000526020600020018054610b70906119c2565b80601f0160208091040260200160405190810160405280929190818152602001828054610b9c906119c2565b8015610be95780601f10610bbe57610100808354040283529160200191610be9565b820191906000526020600020905b815481529060010190602001808311610bcc57829003601f168201915b50505050509050919050565b816002548110610c3a576040517f08c379a0000000000000000000000000000000000000000000000000000000008152600401610c3190611e6b565b60405180910390fd5b826001600082815260200190815260200160002060000160009054906101000a900473ffffffffffffffffffffffffffffffffffffffff1673ffffffffffffffffffffffffffffffffffffffff163373ffffffffffffffffffffffffffffffffffffffff1614610cdf576040517f08c379a0000000000000000000000000000000000000000000000000000000008152600401610cd690611efd565b60405180910390fd5b82600160008681526020019081526020016000206003019081610d029190611d4d565b507fd59ff490e419b5a72d916db4f77bc918cb64099584e8605b5a5aa543eacc0c078484604051610d349291906120af565b60405180910390a150505050565b60006001600060025481526020019081526020016000209050338160000160006101000a81548173ffffffffffffffffffffffffffffffffffffffff021916908373ffffffffffffffffffffffffffffffffffffffff16021790555085816001019081610daf9190611d4d565b5084816002019081610dc19190611d4d565b5083816003019081610dd39190611d4d565b5082816004019081610de59190611d4d565b5081816005018190555060018160070160006101000a81548160ff0219169083151502179055507f9d9ec461f162f3f4fdb9f6d189bfe13c59e48d8acd23a4c3bfcf7cc0fe4e84ed6002543387604051610e41939291906120df565b60405180910390a160026000815480929190610e5c9061211d565b9190505550505050505050565b606060006040518060400160405280600181526020017f5b00000000000000000000000000000000000000000000000000000000000000815250905060005b600254811015611094576000811115610ede5781604051602001610ecc91906121ed565b60405160208183030381529060405291505b81610ee8826110be565b610f276001600085815260200190815260200160002060000160009054906101000a900473ffffffffffffffffffffffffffffffffffffffff1661121e565b60016000858152602001908152602001600020600101600160008681526020019081526020016000206002016001600087815260200190815260200160002060030160016000888152602001908152602001600020600401610f9e600160008a8152602001908152602001600020600501546110be565b610fbd600160008b8152602001908152602001600020600601546110be565b600160008b815260200190815260200160002060070160009054906101000a900460ff16611020576040518060400160405280600581526020017f66616c7365000000000000000000000000000000000000000000000000000000815250611057565b6040518060400160405280600481526020017f74727565000000000000000000000000000000000000000000000000000000008152505b6040516020016110709a9998979695949392919061258a565b6040516020818303038152906040529150808061108c9061211d565b915050610ea8565b50806040516020016110a691906126d0565b60405160208183030381529060405290508091505090565b606060008203611105576040518060400160405280600181526020017f30000000000000000000000000000000000000000000000000000000000000008152509050611219565b600082905060005b600082146111375780806111209061211d565b915050600a826111309190612721565b915061110d565b60008167ffffffffffffffff8111156111535761115261139c565b5b6040519080825280601f01601f1916602001820160405280156111855781602001600182028036833780820191505090505b5090505b600085146112125760018261119e9190611930565b9150600a856111ad9190612752565b60306111b99190612044565b60f81b8183815181106111cf576111ce611964565b5b60200101907effffffffffffffffffffffffffffffffffffffffffffffffffffffffffffff1916908160001a905350600a8561120b9190612721565b9450611189565b8093505050505b919050565b606060008260405160200161123391906127cb565b604051602081830303815290604052905080915050919050565b508054611259906119c2565b6000825580601f1061126b575061128a565b601f016020900490600052602060002090810190611289919061128d565b5b50565b5b808211156112a657600081600090555060010161128e565b5090565b6000819050919050565b6112bd816112aa565b82525050565b60006020820190506112d860008301846112b4565b92915050565b6000604051905090565b600080fd5b600080fd5b6112fb816112aa565b811461130657600080fd5b50565b600081359050611318816112f2565b92915050565b600060208284031215611334576113336112e8565b5b600061134284828501611309565b91505092915050565b60008115159050919050565b6113608161134b565b82525050565b600060208201905061137b6000830184611357565b92915050565b600080fd5b600080fd5b6000601f19601f8301169050919050565b7f4e487b7100000000000000000000000000000000000000000000000000000000600052604160045260246000fd5b6113d48261138b565b810181811067ffffffffffffffff821117156113f3576113f261139c565b5b80604052505050565b60006114066112de565b905061141282826113cb565b919050565b600067ffffffffffffffff8211156114325761143161139c565b5b61143b8261138b565b9050602081019050919050565b82818337600083830152505050565b600061146a61146584611417565b6113fc565b90508281526020810184848401111561148657611485611386565b5b611491848285611448565b509392505050565b600082601f8301126114ae576114ad611381565b5b81356114be848260208601611457565b91505092915050565b6000602082840312156114dd576114dc6112e8565b5b600082013567ffffffffffffffff8111156114fb576114fa6112ed565b5b61150784828501611499565b91505092915050565b600081519050919050565b600082825260208201905092915050565b6000819050602082019050919050565b600081519050919050565b600082825260208201905092915050565b60005b8381101561157657808201518184015260208101905061155b565b60008484015250505050565b600061158d8261153c565b6115978185611547565b93506115a7818560208601611558565b6115b08161138b565b840191505092915050565b60006115c78383611582565b905092915050565b6000602082019050919050565b60006115e782611510565b6115f1818561151b565b9350836020820285016116038561152c565b8060005b8581101561163f578484038952815161162085826115bb565b945061162b836115cf565b925060208a01995050600181019050611607565b50829750879550505050505092915050565b6000602082019050818103600083015261166b81846115dc565b905092915050565b600073ffffffffffffffffffffffffffffffffffffffff82169050919050565b600061169e82611673565b9050919050565b6116ae81611693565b82525050565b600082825260208201905092915050565b60006116d08261153c565b6116da81856116b4565b93506116ea818560208601611558565b6116f38161138b565b840191505092915050565b600061010082019050611714600083018b6116a5565b8181036020830152611726818a6116c5565b9050818103604083015261173a81896116c5565b9050818103606083015261174e81886116c5565b9050818103608083015261176281876116c5565b905061177160a08301866112b4565b61177e60c08301856112b4565b61178b60e0830184611357565b9998505050505050505050565b600060208201905081810360008301526117b281846116c5565b905092915050565b600080604083850312156117d1576117d06112e8565b5b60006117df85828601611309565b925050602083013567ffffffffffffffff811115611800576117ff6112ed565b5b61180c85828601611499565b9150509250929050565b600080600080600060a08688031215611832576118316112e8565b5b600086013567ffffffffffffffff8111156118505761184f6112ed565b5b61185c88828901611499565b955050602086013567ffffffffffffffff81111561187d5761187c6112ed565b5b61188988828901611499565b945050604086013567ffffffffffffffff8111156118aa576118a96112ed565b5b6118b688828901611499565b935050606086013567ffffffffffffffff8111156118d7576118d66112ed565b5b6118e388828901611499565b92505060806118f488828901611309565b9150509295509295909350565b7f4e487b7100000000000000000000000000000000000000000000000000000000600052601160045260246000fd5b600061193b826112aa565b9150611946836112aa565b925082820390508181111561195e5761195d611901565b5b92915050565b7f4e487b7100000000000000000000000000000000000000000000000000000000600052603260045260246000fd5b7f4e487b7100000000000000000000000000000000000000000000000000000000600052602260045260246000fd5b600060028204905060018216806119da57607f821691505b6020821081036119ed576119ec611993565b5b50919050565b600081549050611a02816119c2565b9050919050565b60008190508160005260206000209050919050565b60008190508160005260206000209050919050565b60006020601f8301049050919050565b600082821b905092915050565b600060088302611a807fffffffffffffffffffffffffffffffffffffffffffffffffffffffffffffffff82611a43565b611a8a8683611a43565b95508019841693508086168417925050509392505050565b6000819050919050565b6000611ac7611ac2611abd846112aa565b611aa2565b6112aa565b9050919050565b6000819050919050565b611ae183611aac565b611af5611aed82611ace565b848454611a50565b825550505050565b600090565b611b0a611afd565b611b15818484611ad8565b505050565b5b81811015611b3957611b2e600082611b02565b600181019050611b1b565b5050565b601f821115611b7e57611b4f81611a09565b611b5884611a33565b81016020851015611b67578190505b611b7b611b7385611a33565b830182611b1a565b50505b505050565b600082821c905092915050565b6000611ba160001984600802611b83565b1980831691505092915050565b6000611bba8383611b90565b9150826002028217905092915050565b818103611bd8575050611cb0565b611be1826119f3565b67ffffffffffffffff811115611bfa57611bf961139c565b5b611c0482546119c2565b611c0f828285611b3d565b6000601f831160018114611c3e5760008415611c2c578287015490505b611c368582611bae565b865550611ca9565b601f198416611c4c87611a1e565b9650611c5786611a09565b60005b82811015611c7f57848901548255600182019150600185019450602081019050611c5a565b86831015611c9c5784890154611c98601f891682611b90565b8355505b6001600288020188555050505b5050505050505b565b7f4e487b7100000000000000000000000000000000000000000000000000000000600052603160045260246000fd5b7f696e646578206f7574206f6620626f756e647300000000000000000000000000600082015250565b6000611d176013836116b4565b9150611d2282611ce1565b602082019050919050565b60006020820190508181036000830152611d4681611d0a565b9050919050565b611d568261153c565b67ffffffffffffffff811115611d6f57611d6e61139c565b5b611d7982546119c2565b611d84828285611b3d565b600060209050601f831160018114611db75760008415611da5578287015190505b611daf8582611bae565b865550611e17565b601f198416611dc586611a09565b60005b82811015611ded57848901518255600182019150602085019450602081019050611dc8565b86831015611e0a5784890151611e06601f891682611b90565b8355505b6001600288020188555050505b505050505050565b7f50726f6a65637420646f6573206e6f7420657869737400000000000000000000600082015250565b6000611e556016836116b4565b9150611e6082611e1f565b602082019050919050565b60006020820190508181036000830152611e8481611e48565b9050919050565b7f4f6e6c79207468652070726f6a656374206f776e65722063616e20706572666f60008201527f726d207468697320616374696f6e000000000000000000000000000000000000602082015250565b6000611ee7602e836116b4565b9150611ef282611e8b565b604082019050919050565b60006020820190508181036000830152611f1681611eda565b9050919050565b6000604082019050611f3260008301856112b4565b611f3f60208301846116a5565b9392505050565b7f50726f6a656374206973206e6f74206f70656e00000000000000000000000000600082015250565b6000611f7c6013836116b4565b9150611f8782611f46565b602082019050919050565b60006020820190508181036000830152611fab81611f6f565b9050919050565b7f46756e64696e6720616d6f756e74206d7573742062652067726561746572207460008201527f68616e2030000000000000000000000000000000000000000000000000000000602082015250565b600061200e6025836116b4565b915061201982611fb2565b604082019050919050565b6000602082019050818103600083015261203d81612001565b9050919050565b600061204f826112aa565b915061205a836112aa565b925082820190508082111561207257612071611901565b5b92915050565b600060608201905061208d60008301866112b4565b61209a60208301856116a5565b6120a760408301846112b4565b949350505050565b60006040820190506120c460008301856112b4565b81810360208301526120d681846116c5565b90509392505050565b60006060820190506120f460008301866112b4565b61210160208301856116a5565b818103604083015261211381846116c5565b9050949350505050565b6000612128826112aa565b91507fffffffffffffffffffffffffffffffffffffffffffffffffffffffffffffffff820361215a57612159611901565b5b600182019050919050565b600081905092915050565b600061217b8261153c565b6121858185612165565b9350612195818560208601611558565b80840191505092915050565b7f2c00000000000000000000000000000000000000000000000000000000000000600082015250565b60006121d7600183612165565b91506121e2826121a1565b600182019050919050565b60006121f98284612170565b9150612204826121ca565b915081905092915050565b7f7b2273657269616c4e756d223a00000000000000000000000000000000000000600082015250565b6000612245600d83612165565b91506122508261220f565b600d82019050919050565b7f2c226f776e657241646472657373223a22000000000000000000000000000000600082015250565b6000612291601183612165565b915061229c8261225b565b601182019050919050565b7f222c226f776e65724e616d65223a220000000000000000000000000000000000600082015250565b60006122dd600f83612165565b91506122e8826122a7565b600f82019050919050565b60008154612300816119c2565b61230a8186612165565b94506001821660008114612325576001811461233a5761236d565b60ff198316865281151582028601935061236d565b61234385611a09565b60005b8381101561236557815481890152600182019150602081019050612346565b838801955050505b50505092915050565b7f222c2270726f6a6563744e616d65223a22000000000000000000000000000000600082015250565b60006123ac601183612165565b91506123b782612376565b601182019050919050565b7f222c226465736372697074696f6e223a22000000000000000000000000000000600082015250565b60006123f8601183612165565b9150612403826123c2565b601182019050919050565b7f222c22696d61676555726c223a22000000000000000000000000000000000000600082015250565b6000612444600e83612165565b915061244f8261240e565b600e82019050919050565b7f222c22676f616c416d6f756e74223a0000000000000000000000000000000000600082015250565b6000612490600f83612165565b915061249b8261245a565b600f82019050919050565b7f2c2266756e646564416d6f756e74223a00000000000000000000000000000000600082015250565b60006124dc601083612165565b91506124e7826124a6565b601082019050919050565b7f2c2269734f70656e223a00000000000000000000000000000000000000000000600082015250565b6000612528600a83612165565b9150612533826124f2565b600a82019050919050565b7f7d00000000000000000000000000000000000000000000000000000000000000600082015250565b6000612574600183612165565b915061257f8261253e565b600182019050919050565b6000612596828d612170565b91506125a182612238565b91506125ad828c612170565b91506125b882612284565b91506125c4828b612170565b91506125cf826122d0565b91506125db828a6122f3565b91506125e68261239f565b91506125f282896122f3565b91506125fd826123eb565b915061260982886122f3565b915061261482612437565b915061262082876122f3565b915061262b82612483565b91506126378286612170565b9150612642826124cf565b915061264e8285612170565b91506126598261251b565b91506126658284612170565b915061267082612567565b91508190509b9a5050505050505050505050565b7f5d00000000000000000000000000000000000000000000000000000000000000600082015250565b60006126ba600183612165565b91506126c582612684565b600182019050919050565b60006126dc8284612170565b91506126e7826126ad565b915081905092915050565b7f4e487b7100000000000000000000000000000000000000000000000000000000600052601260045260246000fd5b600061272c826112aa565b9150612737836112aa565b925082612747576127466126f2565b5b828204905092915050565b600061275d826112aa565b9150612768836112aa565b925082612778576127776126f2565b5b828206905092915050565b60008160601b9050919050565b600061279b82612783565b9050919050565b60006127ad82612790565b9050919050565b6127c56127c082611693565b6127a2565b82525050565b60006127d782846127b4565b6014820191508190509291505056fea264697066735822122010549889e5fbb249bd8297f72e6760458e623881e6b298cfafd25d533888a3ef64736f6c63430008140033",
  "linkReferences": {},
  "deployedLinkReferences": {}
}